S01D00006261725F67726170685F6E6F696E74735F736B656C2E7372656359
S11300000C9446000C9450000C9450000C94500036
S11300100C9450000C9450000C9450000C9450001C
S11300200C9450000C9450000C9450000C9450000C
S11300300C9450000C9450000C9450000C945000FC
S11300400C9450000C9450000C9450000C945000EC
S11300500C9450000C9450000C9450000C945000DC
S11300600C9450000C9450000C9450000C945000CC
S11300700C9450000C9450000C9450000C945000BC
S11300800C9450000C9450000C94500011241FBE8A
S1130090CFEFD0E1DEBFCDBF0E9459000C94990090
S11300A00C94000087E087BB81E18DB981E08EB9B3
S11300B008958FEF8ABB87E087BB81E18DB981E02A
S11300C08EB99FE09BBB8FB9779BFECFC09AC09837
S11300D0880F09F481E02FEF31EE44E021503040E5
S11300E04040E1F700C000002FEF31EE44E0215022
S11300F030404040E1F700C000002FEF31EE44E013
S1130100215030404040E1F700C000002FEF31EEB5
S113011044E0215030404040E1F700C000002FEFA0
S113012031EE44E0215030404040E1F700C000008F
S1090130C9CFF894FFCFD3
S9030000FC
