:100000000C9446000C9450000C9450000C9450003A
:100010000C9450000C9450000C9450000C94500020
:100020000C9450000C9450000C9450000C94500010
:100030000C9450000C9450000C9450000C94500000
:100040000C9450000C9450000C9450000C945000F0
:100050000C9450000C9450000C9450000C945000E0
:100060000C9450000C9450000C9450000C945000D0
:100070000C9450000C9450000C9450000C945000C0
:100080000C9450000C9450000C94500011241FBE8E
:10009000CFEFD0E1DEBFCDBF0E9459000C94980095
:1000A0000C94000087E087BB80E58DB981E08EB9B4
:1000B00008958FEF87BB87E087BB80E58DB981E02E
:1000C0008EB918BA8FB9779BFECFC09AC098880FA7
:1000D00009F481E02FEF31EE94E021503040904060
:1000E000E1F700C000002FEF31EE94E021503040E6
:1000F0009040E1F700C000002FEF31EE94E0215076
:1001000030409040E1F700C000002FEF31EE94E066
:10011000215030409040E1F700C000002FEF31EE59
:1001200094E0215030409040E1F700C00000C9CF7A
:04013000F894FFCF71
:00000001FF
