S01100006C6162315F636F64652E73726563B9
S11300000C9446000C9458000C9458000C9458001E
S11300100C9458000C9458000C9458000C945800FC
S11300200C9458000C9458000C9458000C945800EC
S11300300C9458000C9458000C9458000C945800DC
S11300400C9458000C9458000C9458000C945800CC
S11300500C9458000C9458000C9458000C945800BC
S11300600C9458000C9458000C9458000C945800AC
S11300700C9458000C9458000C9458000C9458009C
S11300800C9458000C9458000C94580011241FBE72
S1130090CFEFD0E1DEBFCDBF21E0A0E0B1E001C0F1
S11300A01D92A230B207E1F70E9471000C94CF00B8
S11300B00C94000040B32091000130910101220F03
S11300C0331F306E842F817090E0282B392B3093AE
S11300D001012093000181E02115304F09F080E0F7
S11300E008958FEF87BBC0E0D0E00AE010E006C0BF
S11300F083EF91E00197F1F700C0000090B32091E5
S1130100000130910101220F331F306EE92FE1709D
S1130110F0E02E2B3F2B3093010120930001211599
S1130120304F31F72196C436D10524F018BAC0E017
S1130130D0E0DECFCE01B8010E94A700629572958F
S1130140707F7627607F7627862B88BBD1CF97FB7D
S1130150072E16F4009407D077FD09D00E94BB0047
S113016007FC05D03EF4909581959F4F08957095B6
S113017061957F4F0895AA1BBB1B51E107C0AA1FBD
S1130180BB1FA617B70710F0A61BB70B881F991F34
S11301905A95A9F780959095BC01CD010895F894DE
S10501A0FFCF8B
S9030000FC
