S01100006C6162345F636F64652E73726563B6
S11300000C9446000C9465000C9465000C946500F7
S11300100C9465000C9465000C9465000C946500C8
S11300200C9465000C9452040C9420040C94650008
S11300300C940E040C9465000C9465000C946500FB
S11300400C9495030C9465000C9465000C94650065
S11300500C9465000C9465000C9465000C94650088
S11300600C9465000C9465000C9465000C94650078
S11300700C9465000C9465000C9465000C94650068
S11300800C9465000C9465000C94650011241FBE4B
S1130090CFEFD0E1DEBFCDBF11E0A0E0B1E0E6E7F5
S11300A0F9E000E00BBF02C007900D92AA32B1073D
S11300B0D9F721E0AAE2B1E001C01D92A634B2074B
S11300C0E1F70E945C040C94B9040C94000087EFDF
S11300D087BB80E58DB91EB8089580B7886080BF5E
S11300E087B7816087BF85E083BF08958FB582603D
S11300F08FBD8EB589618EBD10927A0080E090EC40
S11301009BBD8ABD80E090EF97BD86BD87B78061B7
S113011087BF089587B7806487BF8BE785BD80EF6D
S113012083BD089580B7886080BF87B7816087BF2B
S113013085E083BF08958FEF8ABB80EE82B984E0A7
S113014081BB83E084BB81E080932F0185E58FB977
S1130150779BFECF8FB180932B01089588E18EBDEC
S113016087B78F7E87BF089588E785BD08958FB9C7
S1130170779BFECF8FB10895482FE82FF0E099B315
S1130180EE0FFF1FEF5CFE4F20813181220F331FE2
S1130190306E892F90E002C0959587954A95E2F7D5
S11301A081709927282B392B3183208381E02115F5
S11301B0304F09F080E0089508950895813009F4DE
S11301C04EC008F4ACC0823019F08330C1F10895F8
S11301D080912A0180FF37C0E09102018DECE89FF5
S11301E0912D11249695969596952AE0929FE01963
S11301F01124F0E0E35EFE4F908190934101E09181
S11302000201E89FE12D1124E695E695E695E89F25
S1130210912D11249695969596952AE0929FE01932
S11302201124F0E0E35EFE4F90819093420190919F
S11302302D01990F990F909520912801A9C08091C3
S11302402A0180FD0CC08FEF80934101809342010D
S11302508093430180934401809345010895E09184
S113026000018DECE89F912D112496959695969515
S11302702AE0929FE0191124F0E0E35EFE4F9081A2
S113028090934101E0910001E89FE12D1124E6954E
S1130290E695E695E89F912D112496959695969569
S11302A02AE0929FE0191124F0E0E35EFE4F908172
S11302B09093420190912D01990F990F909520915F
S11302C02801922390934301E0910101E89F912D2D
S11302D011249695969596952AE0929FE0191124FB
S11302E0F0E0E35EFE4F908190934401E0910101C0
S11302F0E89FE12D1124E695E695E695E89F812D8A
S113030011248695869586959AE0899FE019112493
S1130310F0E0E35EFE4F8081809345010895E09113
S113032002018DECE89F912D112496959695969552
S11303302AE0929FE0191124F0E0E35EFE4F9081E1
S113034090934101E0910201E89FE12D1124E6958B
S1130350E695E695E89F912D1124969596959695A8
S11303602AE0929FE0191124F0E0E35EFE4F9081B1
S11303709093420140912A0190912D01242F2170E4
S113038030E0F901E35EFE4F990F990F90952285B5
S1130390922390934301E0910301E89F912D11244E
S11303A09695969596952AE0929FE0191124F0E08F
S11303B0E35EFE4F908190934401E091030198CF56
S11303C080912E01823009F440C08330C9F5E09158
S11303D02B0180912C01E370F0E0EE0FFF1FEE0F74
S11303E0FF1F8370E82BEC5FFE4F8081813009F49E
S11303F084C0823051F4809100018B3308F08AC0AC
S1130400809100018F5F8093000180912B01E09126
S11304102C01EC70F0E0F595E795F595E7958C7077
S1130420E82BEC5FFE4F8081813009F45CC08230A0
S113043039F480910101873108F482C010920101DE
S113044080912C0180932B010895E0912B018091E0
S11304502C01E370F0E0EE0FFF1FEE0FFF1F83701F
S1130460E82BEC5FFE4F8081813049F1823051F4FA
S1130470809102018B3308F054C0809102018F5F98
S11304808093020180912B01E0912C01EC70F0E04B
S1130490F595E795F595E7958C70E82BEC5FFE4FA5
S11304A080818130B1F0823059F680910301873127
S11304B070F5809103018F5F80930301C1CF809118
S11304C002018823A9F180910201815080930201E5
S11304D0D9CF80910301882339F1809103018150A0
S11304E080930301ADCF80910101882329F180918C
S11304F00101815080930101A3CF809100018823E1
S113050061F0809100018150809300017ECF1092B0
S1130510030196CF1092000178CF8BE38093000102
S113052074CF10920201AECF87E18093030188CF8C
S11305308BE380930201A6CF87E18093010180CFF2
S1130540809101018F5F809301017ACF0F931F93F4
S1130550CF93DF9388B3806F88BB1ABA8FEF8BBBBE
S113056045E04A95F1F7000049B38091310190913B
S11305703201880F991F906E4170C42F40E0D42F30
S11305808C2B9D2B90933201809331018115904FD8
S113059009F48BC089B34091330150913401440F65
S11305A0551F506E81FB002700F910E0402B512BA2
S11305B0509334014093330149B3809135019091B4
S11305C03601880F991F906E42FBAA27A0F9B0E06C
S11305D08A2B9B2B909336018093350189B34091EC
S11305E0370150913801440F551F506E83FB222769
S11305F020F930E0422B532B5093380140933701BC
S113060089B32091390130913A01220F331F306EA2
S113061084FBEE27E0F9F0E02E2B3F2B30933A01D8
S1130620209339012115304F09F450C029B380912A
S11306303B0190913C01880F991F906E25FB662722
S113064060F970E0862B972B90933C0180933B01DB
S11306508115904F89F188B38F7888BB8FEF8ABB5F
S11306608BBB929883B18F7183B91F9AE0912E014D
S1130670F0E0E85EFE4F80818FB9779BFECF8FB1AB
S113068080932C0190912C0180912B0198130E944E
S1130690E001929A83B1806C83B988B38F7088BB70
S11306A0DF91CF911F910F91089580912E01809534
S11306B0817080932E016ECF83E080932E01909100
S11306C02D0181E0892780932D01C5CF82E080939D
S11306D02E01ACCF80912D01813031F088E18EBDA7
S11306E087B78F7E87BF08959091030180910101A0
S11306F09813F4CF90910201809100019813EECFEA
S11307008FB582608FBD8EB589618EBD10927A00DF
S113071080E090EC9BBD8ABD80E090EF97BD86BDE4
S113072087B7806187BF089508951F920F920FB60F
S11307300F9211240BB60F922F933F934F935F9315
S11307406F937F938F939F93AF93BF93EF93FF9395
S113075080912A018F5F80932A0190912A0189E870
S1130760989F812D11248295869587702CE3829F12
S113077090191124992309F447C020910201909102
S11307802A0189E8989F312D1124329536953770C6
S11307904CE3349F9019112491110BC0289F812D93
S11307A01124829586958770849F20191124222311
S11307B019F1909103018BEA989F812D1124829560
S11307C08F7028E1829F90191124911102C0109218
S11307D00301FF91EF91BF91AF919F918F917F9111
S11307E06F915F914F913F912F910F900BBE0F909E
S11307F00FBE0F901F901895809103018F5F809317
S1130800030110920201D5CF809102018F5F809382
S1130810020110922A010E946A03AFCF1F920F9225
S11308200FB60F9211248F939F9395B38FE089276E
S113083085BB9F918F910F900FBE0F901F901895BD
S11308401F920F920FB60F9211240BB60F922F9393
S11308503F934F935F936F937F938F939F93AF9344
S1130860BF93EF93FF93809130018F5F8B30A8F497
S113087080933001FF91EF91BF91AF919F918F9140
S11308807F916F915F914F913F912F910F900BBE8C
S11308900F900FBE0F901F901895109230010E9478
S11308A0A602E8CF1F920F920FB60F9211240F9059
S11308B00FBE0F901F90189587EF87BB80E58DB909
S11308C01EB880B7886080BF87B7816087BF95E016
S11308D093BF8FB582608FBD8EB589618EBD109236
S11308E07A0020E030EC3BBD2ABD20E030EF37BD7C
S11308F026BD87B7806187BF88E18EBD87B78F7EAD
S113090087BF87B7806487BF8BE785BD80EF83BDD2
S113091080B7886080BF87B7816087BF93BF8FEF40
S11309208ABB80EE82B984E081BB83E084BB81E032
S113093080932F0185E58FB9779BFECF8FB180938C
S11309402B01789480912E010E94DE00E1E4F1E015
S113095080E0982F9295907F98BB91919BBBA7EED6
S1130960B3E01197F1F700C000008F5F853089F77D
S1090970E9CFF894FFCF6B
S11309763B0B370B000201000100000202000001DC
S11309860001020001020400C00183FF4FC0F9A464
S10D0996B0999282F88098FFFC00EB
S9030000FC
