:100000000C9497000C94B6000C94B6000C94B600B7
:100010000C94B6000C94B6000C94B6000C94B60088
:100020000C94B6000C9474050C9438050C94B6002E
:100030000C9426050C94B6000C94B6000C94B600F3
:100040000C9486040C94B6000C947E050C94B600B7
:100050000C94B6000C94B6000C94B6000C94B60048
:100060000C94B6000C94B6000C94B6000C94B60038
:100070000C94B6000C94B6000C94B6000C94B60028
:100080000C94B6000C94C5080C94B6000609DD0863
:10009000DD08DD08DD08DD08DD08DD080609DD080E
:1000A000DD08DD08DD08DD08DD08DD081009DD08F4
:1000B000DD08DD08DD08DD08DD08DD08DD08DD0818
:1000C000DD08DD08DD08DD08DD08DD081009DD08D4
:1000D000DD08DD08DD08DD08DD08DD08DD08DD08F8
:1000E000DD08DD08DD08DD08DD08DD082709DD089D
:1000F000DD08DD08DD08DD08DD08DD082B09DD0889
:10010000DD08DD08DD08DD08DD08DD08DD08DD08C7
:10011000DD08DD08DD08DD08DD08DD083909DD085A
:10012000DD08DD08DD08DD08DD08DD08F70811243D
:100130001FBECFEFD0E1DEBFCDBF11E0A0E0B1E048
:10014000E0E2F6E100E00BBF02C007900D92AC3494
:10015000B107D9F721E0ACE4B1E001C01D92AA3F9C
:10016000B207E1F70E94C2090C940E0B0C94000038
:1001700087EF87BB80E58DB91EB8089580B788608A
:1001800080BF87B7816087BF85E083BF08958FB543
:1001900082608FBD8EB589618EBD10927A0080E03D
:1001A00090EC9BBD8ABD80E090EF97BD86BD87B780
:1001B000806187BF089587B7806487BF8BE785BD5F
:1001C00080EF83BD0895EBE8F0E080818168808353
:1001D000EAE8F0E080818960808310928C008DECE9
:1001E00090E0909387008093860008958FEF8ABBFC
:1001F00088EE82B984E081BB83E084BB81E0809398
:10020000510185E58FB9779BFECF8FB180934E0169
:100210000895E1E6F0E080818F778083E2E6F0E008
:1002200080818F77808387E687B987E886B90895CC
:1002300088E18EBD87B78F7E87BF089588E785BD2B
:1002400008958FB9779BFECF8FB10895482FE82F7F
:10025000F0E099B3EE0FFF1FED5AFE4F2081318180
:10026000220F331F306E892F90E002C0959587953D
:100270004A95E2F781709927282B392B3183208307
:1002800081E02115304F09F080E008950895089528
:10029000813009F44EC008F4ACC0823019F08330CC
:1002A000C1F108958091030180FF37C0E0910401FE
:1002B0008DECE89F912D11249695969596952AE0C0
:1002C000929FE0191124F0E0E05CFE4F9081909342
:1002D0008C01E0910401E89FE12D1124E695E6955B
:1002E000E695E89F912D11249695969596952AE08E
:1002F000929FE0191124F0E0E05CFE4F9081909312
:100300008D0190910601990F990F909520914B01C5
:10031000A9C08091030180FD0CC08FEF80938C01F8
:1003200080938D0180938E0180938F018093900143
:100330000895E09101018DECE89F912D112496958F
:10034000969596952AE0929FE0191124F0E0E05CE2
:10035000FE4F908190938C01E0910101E89FE12D87
:100360001124E695E695E695E89F912D1124969542
:10037000969596952AE0929FE0191124F0E0E05CB2
:10038000FE4F908190938D0190910601990F990FE6
:10039000909520914B01922390938E01E091020160
:1003A000E89F912D11249695969596952AE0929F17
:1003B000E0191124F0E0E05CFE4F908190938F01F2
:1003C000E0910201E89FE12D1124E695E695E6957E
:1003D000E89F812D11248695869586959AE0899FC0
:1003E000E0191124F0E0E05CFE4F808180939001E1
:1003F0000895E09104018DECE89F912D11249695CC
:10040000969596952AE0929FE0191124F0E0E05C21
:10041000FE4F908190938C01E0910401E89FE12DC3
:100420001124E695E695E695E89F912D1124969581
:10043000969596952AE0929FE0191124F0E0E05CF1
:10044000FE4F908190938D014091030190910601A0
:10045000242F217030E0F901E05CFE4F990F990FD5
:1004600090952285922390938E01E0910501E89F5B
:10047000912D11249695969596952AE0929FE019D4
:100480001124F0E0E05CFE4F908190938F01E091A9
:10049000050198CF80915001823009F440C083302B
:1004A000C9F5E0914E0180914F01E370F0E0EE0F4D
:1004B000FF1FEE0FFF1F8370E82BE95DFE4F808169
:1004C000813009F484C0823051F4809101018B3372
:1004D00008F08AC0809101018F5F809301018091B3
:1004E0004E01E0914F01EC70F0E0F595E795F59540
:1004F000E7958C70E82BE95DFE4F8081813009F42F
:100500005CC0823039F480910201873108F482C0E6
:100510001092020180914F0180934E010895E09165
:100520004E0180914F01E370F0E0EE0FFF1FEE0FE0
:10053000FF1F8370E82BE95DFE4F8081813049F118
:10054000823051F4809104018B3308F054C08091C3
:1005500004018F5F8093040180914E01E0914F016F
:10056000EC70F0E0F595E795F595E7958C70E82B44
:10057000E95DFE4F80818130B1F0823059F6809183
:100580000501873170F5809105018F5F809305012A
:10059000C1CF809104018823A9F180910401815089
:1005A00080930401D9CF80910501882339F180918E
:1005B0000501815080930501ADCF80910201882310
:1005C00029F180910201815080930201A3CF809193
:1005D0000101882361F08091010181508093010124
:1005E0007ECF1092050196CF1092010178CF8BE358
:1005F0008093010174CF10920401AECF87E1809304
:10060000050188CF8BE380930401A6CF87E1809317
:10061000020180CF809102018F5F809302017ACF27
:10062000809106018130B9F080910601811112C0DC
:1006300088E18EBD87B78F7E87BF10924C0180E224
:1006400080930701809308018093090180930A0138
:1006500080930B01089520910501909102012913C7
:10066000E3CF20910401909101012913DDCF209166
:10067000030190914D012913D7CF9FB592609FBD83
:100680009EB599619EBD10927A0020E030EC3BBD92
:100690002ABD20E030EF37BD26BD97B7906197BFE8
:1006A00080934C0181E4809307019CE490930801BE
:1006B0008093090182E580930A018DE480930B0108
:1006C000B3CF88E18EBD87B78F7E87BF10924C0174
:1006D00080914D01823330F58091050180930201B4
:1006E00080910401809301018091030180934D0169
:1006F00080914D018233B8F090914D018CE3891BBC
:1007000080934D01809101018F5F80930101809161
:1007100001018C3338F010920101809102018F5F4A
:1007200080930201089580914D01865F80934D0171
:100730000895FF920F931F93CF93DF9348B3406FB9
:1007400048BB1ABA4FEF4BBB85E08A95F1F7000022
:10075000F9B24091530150915401440F551F506E0E
:100760008F2D817090E0482B592B5093540140936A
:1007700053014115504F09F4A4C049B3809155016C
:1007800090915601880F991F906E41FB002700F948
:1007900010E0802B912B909356018093550189B3E3
:1007A0004091570150915801440F551F506E82FBE4
:1007B000882780F9C82F20E0D22F4C2B5D2B509337
:1007C00058014093570149B38091590190915A01C2
:1007D000880F991F906E43FBAA27A0F9B0E08A2BDF
:1007E0009B2B90935A018093590189B340915B01EF
:1007F00050915C01440F551F506E84FB222720F955
:1008000030E0422B532B50935C0140935B01411528
:10081000504F09F470C089B320915D0130915E01A1
:10082000220F331F306E85FBEE27E0F9F0E02E2B10
:100830003F2B30935E0120935D012115304F09F469
:100840004EC029B380915F0190916001880F991F7C
:10085000906E26FB662760F970E0862B972B9093AD
:10086000600180935F018115904F91F188B38F787B
:1008700088BB8FEF8ABB8BBB929883B18F7183B992
:100880001F9AE0915001F0E0E55CFE4F80818FB946
:10089000779BFECF8FB180934F0190914F01809154
:1008A0004E0198130E944A02929A83B1806C83B9D8
:1008B00088B38F7088BBDF91CF911F910F91FF900C
:1008C000089580915001809581708093500155CF9B
:1008D00080914C01813051F60E946103C7CF83E0C3
:1008E000809350019091060181E089278093060151
:1008F00010924D01A6CF82E0809350018CCF369AA2
:10090000349BFECF349A85B183BD08951F920F9218
:100910000FB60F9211240BB60F922F933F934F9364
:100920005F936F937F938F939F93AF93BF93EF9357
:10093000FF930E941003809103018F5F8093030156
:100940009091030189E8989F812D112482958695C5
:1009500087702CE3829F90191124911107C0809118
:1009600004018F5F80930401109203013091040110
:100970009091030189E8989F212D112422952695B5
:1009800027704CE3249F9019112491110CC0389FBB
:10099000812D1124829586958770849F30191124AA
:1009A000332309F44BC0909105018BEA989F812D68
:1009B000112482958F7028E1829F90191124911142
:1009C00002C01092050142E063EA71E080E90E94F2
:1009D00069098091A30190E0982F88272091A401B4
:1009E000822B880F892F881F990B919590938901ED
:1009F000809388014AE066E871E00E94D90A8091FC
:100A0000860180931A018091870180931B015D9B71
:100A1000FECF80EF8CB9FF91EF91BF91AF919F9185
:100A20008F917F916F915F914F913F912F910F9097
:100A30000BBE0F900FBE0F901F901895809105016F
:100A40008F5F8093050110920401ADCF1F920F922A
:100A50000FB60F9211248F939F9395B383E089274C
:100A600085BB9F918F910F900FBE0F901F9018958F
:100A70001F920F920FB60F9211240BB60F922F9365
:100A80003F934F935F936F937F938F939F93AF9316
:100A9000BF93EF93FF93809152018F5F8B30A8F447
:100AA00080935201FF91EF91BF91AF919F918F91F0
:100AB0007F916F915F914F913F912F910F900BBE5E
:100AC0000F900FBE0F901F901895109252010E9428
:100AD0009903369A349BFECF349A85B183BD87E063
:100AE00091E00E94CB05DECF1F920F920FB60F92BE
:100AF00011240F900FBE0F901F9018951F920F9208
:100B00000FB60F9211240BB60F922F933F934F9372
:100B10005F936F937F938F939F93AF93BF93EF9365
:100B2000FF93809100018130D1F00E94B70980933A
:100B3000210181E080930001FF91EF91BF91AF917E
:100B40009F918F917F916F915F914F913F912F91E5
:100B50000F900BBE0F900FBE0F901F9018950E9424
:100B6000B7098093200110920001E6CF91E0811136
:100B700001C090E09FB9779BFECF6FB9779BFECF06
:100B80008091620088608093620080916200877F1C
:100B9000809362000895CF93C09163018C0F911DE3
:100BA000FC01608181E00E94B60581E08C0F80939A
:100BB0006301803181F0803211F0CF91089585ED8D
:100BC0008A95F1F7000060E880E00E94B605109277
:100BD0006301CF910895F5EDFA95F1F7000060EC0F
:100BE00080E00E94B60580916301E5CFEF92FF920D
:100BF0000F931F93CF93DF931F92CDB7DEB7182FBC
:100C0000660F660F660F605C80E099830E94B605F0
:100C100085ED8A95F1F70000E12E9981F92E870183
:100C2000085F1F4FF70161917F0181E00E94B605C7
:100C3000F5EDFA95F1F70000E016F10699F70F903F
:100C4000DF91CF911F910F91FF90EF90089590E465
:100C5000899F600D1124605C80E00C94B605CF93F1
:100C60008823B9F1C82F843698F48A30D8F48DECF3
:100C7000C89F812D11248695869586956C2F2AE034
:100C8000829F60191124605D81E0CF910C94B605BC
:100C900069E2869F612D112462956F70605D81E02D
:100CA0000E94B60589E2C89F812D112482958F701C
:100CB0009C2F24E6829F901911246DEC969F612D44
:100CC0001124669566956695605D81E00E94B60583
:100CD000CECF60E381E0CF910C94B605CF9387FD32
:100CE00003C0CF910C942F06C82F6DE281E00E94C3
:100CF000B60585ED8A95F1F700008C2F8195CF918F
:100D00000C942F066EE080E00C94B6056CE080E059
:100D10000C94B6056EE180E00C94B60568E180E0C5
:100D20000C94B605E2E6F0E08081886080838081E3
:100D3000877F8083089561E080E00E94B6058FE19F
:100D40009CE10197F1F700C00000089562E080E0A7
:100D50000E94B6058FE697E10197F1F700C0000009
:100D6000089560EC80E00C94B60560E880E00C9497
:100D7000B605CF93C0E160E281E00E94B60585ED43
:100D80008A95F1F70000C150B1F7CF910895682F0F
:100D900081E00C94B6050F931F93CF938C0140E034
:100DA00050E0C0E0F801E40FF51F608181E00E948F
:100DB000B60585ED8A95F1F70000CF5F4C2F50E026
:100DC000F80101900020E9F79F01201B310B225010
:100DD00031092417350730F7CF911F910F910895EE
:100DE0008FEF99EF0197F1F700C0000088E0809342
:100DF000610060E380E00E94B6058FE59DE6019703
:100E0000F1F700C0000060E380E00E94B6058FE5C6
:100E10009DE60197F1F700C0000060E380E00E94CA
:100E2000B6058FE59DE60197F1F700C0000068E385
:100E300080E00E94B6058FE19EE40197F1F700C0C3
:100E4000000068E080E00E94B6058FE19EE4019713
:100E5000F1F700C0000061E080E00E94B6058FE17C
:100E60009EE40197F1F700C0000066E080E00E9478
:100E7000B6058FE19EE40197F1F700C000006CE039
:100E800080E00E94B6058FE19EE40197F1F700C073
:100E9000000008958F929F92AF92BF92CF92DF92FF
:100EA000EF92FF920F931F93CF93DF93CDB7DEB7EF
:100EB00069970FB6F894DEBF0FBECDBFF42E122F88
:100EC000002359F04B015C018824B7FC83949924DA
:100ED000AA24BB24082D97FD8FC0112309F484C0D8
:100EE0009E012F5F3F4F6901590188248A94810E2A
:100EF000912C3FEF831A930A8C0C9D1C2AE030E062
:100F000040E050E00E947B0AE62F2A8B3B8B4C8B03
:100F10005D8B6A897B898C899D8920E32E0FF50181
:100F200021935F01E815F90549F7BB24B394B10E8D
:100F3000F601E10FF11D2EE220832AE030E040E0CF
:100F400050E00E947B0AE62F2A8B3B8B4C8B5D8BFB
:100F50006E8B7F8B888F998F6A897B898C899D891D
:100F600011E01B0DD601AB0DB11DE05DEC93B12E70
:100F7000611571058105910501F7FF2061F0E11010
:100F800039C080E21F1538F4F601E10FF11D8083AE
:100F90001F5F1F11F9CF002331F0F601E10FF11DA2
:100FA0008DE280831F5F1150F601E10FF11D60811A
:100FB00081E00E94B60535ED3A95F1F70000111178
:100FC000F2CF69960FB6F894DEBF0FBECDBFDF91AA
:100FD000CF911F910F91FF90EF90DF90CF90BF9036
:100FE000AF909F908F900895B12C9E012F5F3F4F3F
:100FF0006901A3CF80E3C6CF9095809570956195E8
:101000007F4F8F4F9F4F69CF5F926F927F928F92EA
:101010009F92AF92BF92CF92DF92EF92FF920F9387
:101020001F93CF93DF93CDB7DEB761970FB6F894D8
:10103000DEBF0FBECDBFA62E542E622E792E771C9A
:101040007724771CB72CC72CD12CEE27FF27EC195F
:10105000FD098E279F27FC01EC0DFD1D442309F49B
:101060008EC0CE0101967C018C0188248A94840E66
:10107000912C9FEF891A990A8E0C9F1C6AE070E0F0
:10108000CF010E94670A262FE22FF72F805DD8013B
:101090008D938D01A815B90589F701E0050DD701DC
:1010A000A50DB11D8EE28C936AE070E0CF010E9425
:1010B000670A262FE22FF72F11E0100FD701A00F9C
:1010C000B11D805D8C93012F309771F7611015C0B1
:1010D000772039F011E0100FF701E00FF11D8DE2DC
:1010E0008083AA2041F1812F90E02A2D30E08217E1
:1010F00093070CF5B12C40E20CC0AA20A1F0812F7F
:1011000090E02A2D30E02C193D09821793075CF4FA
:1011100040E31F5FF701E80FF91F4083812F90E044
:1011200082179307B4F3BB2031F0F701E10FF11DF3
:101130008DE280831F5F1150F701E10FF11D608187
:1011400081E00E94B60595ED9A95F1F70000111126
:10115000F2CF61960FB6F894DEBF0FBECDBFDF9120
:10116000CF911F910F91FF90EF90DF90CF90BF90A4
:10117000AF909F908F907F906F905F90089500E068
:10118000CE0101967C0190CF08951F920F920FB669
:101190000F9211240BB60F922F933F938F939F932F
:1011A000AF93BF93EF93FF93E09171008E2F90E088
:1011B000FC013897E135F105B0F080917100809322
:1011C000A50184E080937400FF91EF91BF91AF91EE
:1011D0009F918F913F912F910F900BBE0F900FBE5B
:1011E0000F901F901895EA5BFF4F0C949A0A80911C
:1011F0006401E091A601F091A701E80FF11D809133
:101200007300808384E980937400DECF8091A8010D
:10121000809373001092640185E880937400D4CFAA
:10122000809164019091A901891760F7E091A6016E
:10123000F091A70191E0980F90936401E80FF11DE0
:1012400080818093730085E880937400BDCF85EA28
:1012500080937400B9CF209164018091A90130E09E
:1012600090E0019728173907DCF485EC809374002F
:10127000ABCFE091A601F091A7018091640121E03C
:10128000280F20936401E80FF11D80917300808383
:101290008091A90130E090E00197281739072CF3DD
:1012A00085E88093740090CF8091740081700895D8
:1012B0009091740090FDFCCF8E7F8093A801709375
:1012C000A7016093A6014093A90185EA8093740069
:1012D00008959091740090FDFCCF81608093A801E7
:1012E0007093A7016093A6014093A90185EA8093BA
:1012F000740008958FEF80937300109271008CE05A
:101300008093700008955D9BFECF8CB95D9BFECFEE
:101310000895FC019081992349F031965D9BFECFA1
:101320009CB95D9BFECF91919111F8CF08959C01DE
:10133000FC014491442369F00196F90124915D9BDD
:10134000FECF2CB95D9BFECF9C01FC014491411165
:10135000F3CF08958AB188698AB9E5E9F0E0808120
:10136000866080831092900087E689B9089580E8AE
:101370009EE302C0019721F05F9BFCCF8CB10895E2
:1013800080E0089587EF87BB80E58DB91EB880B7F0
:10139000886080BF87B7816087BF85E083BF8FB5D6
:1013A00082608FBD8EB589618EBD10927A0080E01B
:1013B00090EC9BBD8ABD80E090EF97BD86BD87B75E
:1013C000806187BF88E18EBD87B78F7E87BF87B773
:1013D000806487BF8BE785BD80EF83BD80918B00E4
:1013E000816880938B0080918A00896080938A0055
:1013F00010928C008DEC90E0909387008093860093
:101400000E947A091092A10142E061EA71E080E94C
:101410000E9458090E94AA098FEF8ABB88EE82B900
:1014200084E081BB83E084BB81E08093510185E54A
:101430008FB9779BFECF8FB180934E018091610071
:101440008F7780936100809162008F778093620034
:1014500087E687B987E886B90E94F00678940E94EB
:101460009B06CFEF809150010E94480110928B01A2
:1014700010926501809165018A30D8F0F3CF809198
:101480008B018295807F88BBE0918B01F0E0E4576F
:10149000FE4F80818BBB85E38A95F1F70000CBBBC3
:1014A00085E08A95F1F7000080918B018F5F809332
:1014B0008B0180918B01853010F3809165018F5FE6
:1014C00080936501809165018A3098F3CBCF97FBBB
:1014D000072E16F4009407D077FD09D00E94A30AC6
:1014E00007FC05D03EF4909581959F4F0895709527
:1014F00061957F4F0895052E97FB1EF400940E947E
:10150000920A57FD07D00E94B70A07FC03D04EF499
:101510000C94920A50954095309521953F4F4F4F2E
:101520005F4F089590958095709561957F4F8F4F8F
:101530009F4F0895EE0FFF1F0024001C0BBE079065
:10154000F691E02D0994AA1BBB1B51E107C0AA1F0D
:10155000BB1FA617B70710F0A61BB70B881F991F54
:101560005A95A9F780959095BC01CD010895A1E207
:101570001A2EAA1BBB1BFD010DC0AA1FBB1FEE1F0D
:10158000FF1FA217B307E407F50720F0A21BB30B58
:10159000E40BF50B661F771F881F991F1A9469F7D4
:1015A00060957095809590959B01AC01BD01CF0130
:1015B0000895BB274A3031F4992322F4BDE2909577
:1015C00081959F4F0C94E50ABB27FB015527AA275D
:1015D000880F991FAA1FA41710F0A41B83955051C0
:1015E000B9F7A05DAA3308F0A95DA193009779F738
:1015F000B111B1931192CB010C94FE0ADC01FC01F4
:10160000672F71917723E1F7329704C07C916D9336
:1016100070836291AE17BF07C8F30895F894FFCFA7
:1016200001380B28370B01202020202020202020EB
:1016300020202020202020494E3A20204F55543A87
:1016400020202020202020000201000100000202B2
:101650000000010001020001020400C00183FF4FED
:0C166000C0F9A4B0999282F88098FFFCB9
:00000001FF
