:100000006AC084C083C082C081C080C07FC07EC0FF
:100010007DC07CC07BC07AC079C078C077C076C014
:1000200075C074C074C072C071C070C06FC06EC043
:1000300099C06CC0D3C0ACC0ABC0AAC0A9C0A8C096
:10004000A7C0A6C0CBC0A4C0A3C0A2C0A1C0A0C06E
:100050009FC09EC0CDC09CC09BC09AC099C098C094
:1000600097C096C095C094C093C092C091C090C0F4
:100070008FC08EC0BDC08CC08BC08AC089C088C0F4
:1000800087C086C085C084C083C082C081C080C054
:100090007FC07EC0C4C07CC07BC07AC079C078C03D
:1000A00077C076C0C0C074C073C072C071C070C069
:1000B0006FC06EC06DC06CC06BC06AC069C068C0E4
:1000C00067C066C0BEC064C063C062C061C060C0BB
:1000D0005FC05EC074C011241FBECFEFD2E0DEBF90
:1000E000CDBF11E0A0E0B1E0ECE4F4E002C0059087
:1000F0000D92A230B107D9F721E0A2E0B1E001C032
:100100001D92A136B207E1F73DD19EC179CF1F9272
:100110000F920FB60F9211242F933F934F935F933B
:100120006F937F938F939F93AF93BF93EF93FF93BF
:100130001BD180930701803F89F0FF91EF91BF9120
:10014000AF919F918F917F916F915F914F913F916F
:100150002F910F900FBE0F901F90189583E091E0A4
:10016000C6D0EBCF1F920F920FB60F9211242F9390
:100170003F938F939F93AF93BF93EF93FF93E09140
:10018000B9008E2F90E0FC013897E135F105A0F021
:100190008091B9008093080184E08093BC00FF91B6
:1001A000EF91BF91AF919F918F913F912F910F90C0
:1001B0000FBE0F901F901895E65EFF4F0994809137
:1001C0000201E0910901F0910A01E80FF11D80910F
:1001D000BB00808384E98093BC00E1CF80910B0158
:1001E0008093BB001092020185E88093BC00D7CFBA
:1001F0008091020190910C01891760F7E09109014B
:10020000F0910A0191E0980F90930201E80FF11D1F
:1002100080818093BB0085E88093BC00C0CF85EAD5
:100220008093BC00BCCF2091020180910C0130E092
:1002300090E0019728173907DCF485EC8093BC0027
:10024000AECFE0910901F0910A018091020121E015
:10025000280F20930201E80FF11D8091BB008083DD
:1002600080910C0130E090E00197281739072CF3BA
:1002700085E88093BC0093CF8091BC008170089585
:100280009091BC0090FDFCCF8E7F80930B0170930A
:100290000A016093090140930C0185EA8093BC0038
:1002A00008959091BC0090FDFCCF816080930B017C
:1002B00070930A016093090140930C0185EA8093D1
:1002C000BC0008958FEF8093BB001092B9008CE0C2
:1002D0008093B800089508959091C00095FFFCCFD9
:1002E0008093C6008091C00085FFFCCF0895FC017B
:1002F0002081222371F031969091C00095FFFCCFB0
:100300002093C6009091C00095FFFCCF2191211150
:10031000F3CF08959C01C901F9014491442399F058
:100320002F5F3F4FFC0184919091C00095FFFCCF5F
:100330008093C6009091C00095FFFCCFC901F901E0
:1003400044914111EDCF0895E1ECF0E0808188699E
:100350008083E2ECF0E08081866080831092C500AB
:1003600083E38093C400089580E89EE302C0019770
:1003700039F02091C00027FFFACF8091C600089580
:1003800080E008959FDFE0DF789410920D0142E055
:100390006DE071E080E974DF80910F0190E0982FAB
:1003A000882720911001822B880F892F881F990B95
:1003B000919590930601809305014AE063E071E016
:1003C00010D0809100018130F1F742E06FE071E0E0
:1003D00080E967DF8FE99FE00197F1F700C0000037
:1003E000DBCFBB274A3031F4992322F4BDE290954C
:1003F00081959F4F01C0BB27FB015527AA27880F76
:10040000991FAA1FA41710F0A41B83955051B9F788
:10041000A05DAA3308F0A95DA193009779F7B11107
:10042000B1931192CB0100C0DC01FC01672F7191E7
:100430007723E1F7329704C07C916D9370836291CA
:0C044000AE17BF07C8F30895F894FFCF73
:02044C000100AD
:00000001FF
