S01100006C6162325F636F64652E73726563B8
S11300000C9446000C9465000C9465000C946500F7
S11300100C9465000C9465000C9465000C946500C8
S11300200C9465000C9465000C9465000C946500B8
S11300300C9465000C9465000C9465000C946500A8
S11300400C9465000C9465000C9465000C94650098
S11300500C9465000C9465000C9465000C94650088
S11300600C9465000C9465000C9465000C94650078
S11300700C9465000C9465000C9465000C94650068
S11300800C9465000C9465000C94650011241FBE4B
S1130090CFEFD0E1DEBFCDBF11E0A0E0B1E0EEE4F0
S11300A0F3E000E00BBF02C007900D92AC30B10743
S11300B0D9F721E0ACE0B1E001C01D92A132B20752
S11300C0E1F70E943B010C94A5010C940000482F19
S11300D0E82FF0E099B3EE0FFF1FE45FFE4F20819D
S11300E03181220F331F306E892F90E002C0959525
S11300F087954A95E2F781709927282B392B31830C
S1130100208381E02115304F09F080E008951F938A
S1130110CF93DF93EC019C01ADECBCEC0E94960103
S1130120AC015695479556954795569547959A012E
S1130130220F331FCA01880F991F880F991F880F38
S1130140991F820F931FFE01E81BF90BE050FF4F2C
S1130150808180931C019A010E949601969587954F
S113016096958795969587959C01220F331F880F46
S1130170991F880F991F880F991F820F931F481B7F
S1130180590BFA01E050FF4F808180931D011FEF4E
S113019010931E019E013695279536952795ABE75A
S11301A0B4E10E949601AC01569547959A01ADECD5
S11301B0BCEC0E94960196958795969587959695A1
S11301C087959C01220F331F880F991F880F991F51
S11301D0880F991F820F931F481B590BFA01E05097
S11301E0FF4F808180931F019E0136952795369598
S11301F0279536952795A5ECB0E20E949601AC01AF
S1130200529542954F7045275F7045279A01ADEC92
S1130210BCEC0E9496019695879596958795969540
S113022087959C01220F331F880F991F880F991FF0
S1130230880F991F820F931F481B590BFA01E05036
S1130240FF4F8081C83E93E0D90778F410932001D2
S1130250C436D10530F410931F012A9710F410937B
S11302601D01DF91CF911F91089580932001DF91AB
S1130270CF911F910895C0E0D0E0EE24EA9490EF6E
S1130280F92E01E010E01ABAEBBAF7BA88B3E8BA6B
S1130290ECE0F1E040E050E005C04F5F5F4F4830D4
S11302A0510531F199B320813181B901660F771F6E
S11302B0292F30E0042E02C0359527950A94E2F7E1
S11302C021703327262B372B306E21933193211540
S11302D0304F19F7C801042E02C0880F991F0A94E1
S11302E0E2F7C80FD91F4F5F5F4F48305105D1F671
S11302F0C79AC115A4E0DA0710F0CF5FD340CE014E
S11303000E948700EABAECE1F1E080E091919BBBA6
S1130310982F9295907F98BBAFE9BFE01197F1F7C2
S113032000C000008F5F853089F7ADCFA29FB00178
S1130330B39FC001A39F700D811D1124911DB29F15
S1110340700D811D1124911D0895F894FFCFB6
S10F034EC0F9A4B0999282F88098FF7F57
S9030000FC
