S01600007377697463685F6578616D706C652E7372656331
S11300000C9446000C9458000C9458000C9458001E
S11300100C9458000C9458000C9458000C945800FC
S11300200C9458000C9458000C9458000C945800EC
S11300300C9458000C9458000C9458000C946200D2
S11300400C9458000C9458000C9458000C945800CC
S11300500C9458000C9458000C9458000C945800BC
S11300600C9458000C9458000C9458000C945800AC
S11300700C9458000C9458000C9458000C9458009C
S11300800C9458000C9458000C94580011241FBE72
S1130090CFEFD0E1DEBFCDBF21E0A0E0B1E001C0F1
S11300A01D92A531B207E1F70E9402020C9470027E
S11300B00C94000087B3876087BB80E58DB981E02D
S11300C08EB908951F920F920FB60F9211248F9339
S11300D09F93809102019091030181309105F9F081
S11300E078F0029731F4819B04C0109203011092BE
S11300F002019F918F910F900FBE0F901F90189542
S11301008199F7CF81E090E09093030180930201FD
S11301109F918F910F900FBE0F901F901895809113
S113012000019091010101969093010180930001D7
S113013082E090E090930301809302019F918F915C
S11301400F900FBE0F901F901895E2E6F0E08081AB
S1130150886080838081877F808308951FB8779B20
S1130160FECF81E08FB9779BFECF809162008860DB
S11301708093620080916200877F809362008FE3A6
S11301809FE10197F1F700C0000008951FB8779B25
S1130190FECF82E08FB9779BFECF809162008860AA
S11301A08093620080916200877F8093620008954B
S11301B01FB8779BFECF80EC8FB9779BFECF8091E1
S11301C0620088608093620080916200877F8093E0
S11301D06200089520E130E041E090E24FB9779B5E
S11301E0FECF9FB9779BFECF809162008860809399
S11301F0620080916200877F80936200EFE9FFE0F4
S11302003197F1F700C000002150310939F7089502
S113021091E09FB9779BFECF8FB9779BFECF8091FA
S1130220620088608093620080916200877F80937F
S113023062008FE99FE00197F1F700C00000089584
S11302401FB8779BFECF8CE08FB9779BFECF809150
S1130250620088608093620080916200877F80934F
S113026062008FE99FE00197F1F700C00000089554
S1130270CF93DF93FC01DC0140E050E061E06FB913
S1130280779BFECF8D918FB9779BFECF90916200C3
S113029098609093620090916200977F90936200BF
S11302A08FE891E00197F1F700C000004F5F5F4FC6
S11302B0EF0109900020E9F79E012E1B3F0B22500D
S11302C0310924173507D8F6DF91CF91089580912D
S11302D061008860809361008FE59AEE0197F1F7E1
S11302E000C0000023E030E090E31FB8779BFECF0E
S11302F09FB9779BFECF80916200886080936200F3
S113030080916200877F80936200EFE5FDE631977C
S1130310F1F700C000002150310939F71FB8779B6D
S1130320FECF88E38FB9779BFECF8091620088600F
S11303308093620080916200877F809362008FE1E6
S11303409EE40197F1F700C000001FB8779BFECF31
S113035088E08FB9779BFECF80916200886080939C
S1130360620080916200877F80936200EFE1FEE487
S11303703197F1F700C000001FB8779BFECF81E0F2
S11303808FB9779BFECF8091620088608093620072
S113039080916200877F809362008FE19EE40197E1
S11303A0F1F700C000001FB8779BFECF86E08FB93D
S11303B0779BFECF80916200886080936200809179
S11303C06200877F80936200EFE1FEE43197F1F7EA
S11303D000C000001FB8779BFECF8EE08FB9779BDB
S11303E0FECF8091620088608093620080916200F9
S11303F0877F809362008FE19EE40197F1F700C04C
S11304000000089587B3876087BB80E58DB981E0DC
S11304108EB90E9467010E94AE000E94200187B736
S1130420826087BF83B7886083BF81B78FEF81BF46
S113043083B7876083BF7894109204018FE39FE1B0
S11304400197F1F700C00000809104018F5F809351
S11304500401853098F380910001909101014AE0F4
S113046065E071E00E943B0285E091E00E94380162
S11304700E94C600E1CFBB274A3031F4992322F40D
S1130480BDE2909581959F4F0C944702BB27FB01D9
S11304905527AA27880F991FAA1FA41710F0A41B79
S11304A083955051B9F7A05DAA3308F0A95DA193D3
S11304B0009779F7B111B1931192CB010C946002BA
S11304C0DC01FC01672F71917723E1F7329704C0B7
S11304D07C916D9370836291AE17BF07C8F3089542
S10704E0F894FFCFBA
S9030000FC
