S01D00006261725F67726170685F6E6F696E74735F736B656C2E7372656359
S11300000C9446000C9450000C9450000C94500036
S11300100C9450000C9450000C9450000C9450001C
S11300200C9450000C9450000C9450000C9450000C
S11300300C9450000C9450000C9450000C945000FC
S11300400C9450000C9450000C9450000C945000EC
S11300500C9450000C9450000C9450000C945000DC
S11300600C9450000C9450000C9450000C945000CC
S11300700C9450000C9450000C9450000C945000BC
S11300800C9450000C9450000C94500011241FBE8A
S1130090CFEFD0E1DEBFCDBF0E9459000C94950094
S11300A00C94000087E087BB80E18DB981E08EB9B4
S11300B0089587E087BB80E18DB981E08EB98FB95F
S11300C0779BFECFC09AC098880F09F481E02FEF88
S11300D031EE94E0215030409040E1F700C0000040
S11300E02FEF31EE94E0215030409040E1F700C012
S11300F000002FEF31EE94E0215030409040E1F7C2
S113010000C000002FEF31EE94E0215030409040C9
S1130110E1F700C000002FEF31EE94E021503040B1
S11101209040E1F700C00000CACFF894FFCF72
S9030000FC
