S01100006C6162335F636F64652E73726563B7
S11300000C9446000C9465000C9465000C946500F7
S11300100C9465000C9465000C9465000C946500C8
S11300200C9465000C9465000C9465000C946500B8
S11300300C9465000C9465000C9465000C946500A8
S11300400C9454010C9465000C9465000C946500A8
S11300500C9465000C9465000C9465000C94650088
S11300600C9465000C9465000C9465000C94650078
S11300700C9465000C9465000C9465000C94650068
S11300800C9465000C9465000C94650011241FBE4B
S1130090CFEFD0E1DEBFCDBF11E0A0E0B1E0E8E8F2
S11300A0F4E000E00BBF02C007900D92A631B10747
S11300B0D9F721E0A6E1B1E001C01D92A033B20757
S11300C0E1F70E94D9010C9442020C940000482FDD
S11300D0E82FF0E099B3EE0FFF1FE55EFE4F20819D
S11300E03181220F331F306E892F90E002C0959525
S11300F087954A95E2F781709927282B392B31830C
S1130100208381E02115304F09F080E008951F938A
S1130110CF93DF93EC019C01ADECBCEC0E94330265
S1130120AC015695479556954795569547959A012E
S1130130220F331FCA01880F991F880F991F880F38
S1130140991F820F931FFE01E81BF90BE75FFE4F17
S1130150808180932B019A010E94330296958795A2
S113016096958795969587959C01220F331F880F46
S1130170991F880F991F880F991F820F931F481B7F
S1130180590BFA01E75FFE4F808180932C011FEF2A
S113019010932D019E013695279536952795ABE74B
S11301A0B4E10E943302AC01569547959A01ADEC37
S11301B0BCEC0E9433029695879596958795969503
S11301C087959C01220F331F880F991F880F991F51
S11301D0880F991F820F931F481B590BFA01E75F81
S11301E0FE4F808180932E019E013695279536958A
S11301F0279536952795A5ECB0E20E943302AC0111
S1130200529542954F7045275F7045279A01ADEC92
S1130210BCEC0E94330296958795969587959695A2
S113022087959C01220F331F880F991F880F991FF0
S1130230880F991F820F931F481B590BFA01E75F20
S1130240FE4F8081C83E93E0D90778F410932F01C4
S1130250C436D10530F410932E012A9710F410936C
S11302602C01DF91CF911F91089580932F01DF918D
S1130270CF911F91089587E087BB80E58DB981E018
S11302808EB9089580B7886080BF87B7826087BFC2
S113029083B7896083BF81B78FEF81BF08958FB91A
S11302A0779BFECF8FB108951F920F920FB60F92D6
S11302B011240BB60F922F933F934F935F936F9339
S11302C07F938F939F93EF93FF931ABA8FEF8BBB18
S11302D090EF97BB98B388BB89B320911B013091F1
S11302E01C01220F331F306E482F417050E0242B25
S11302F0352B30931C0120931B012115304FE9F15C
S113030029B380911D0190911E01880F991F906E51
S113031021FB662760F970E0862B972B90931E01D2
S113032080931D018115904FB1F1E0911A01F0E025
S1130330EB5FFE4F80818FB9779BFECF8FB18093A7
S113034017019091170180911601981729F0809157
S113035000018F5F80930001FF91EF919F918F9136
S11303607F916F915F914F913F912F910F900BBEB1
S11303700F900FBE0F901F901895E0911901809176
S1130380180191E0E927E82BF0E0EF5FFE4F808150
S113039080931A01B5CFE09118018091190192E080
S11303A0E927E82BF0E0EF5FFE4F808180931A018C
S11303B0BCCF87E087BB80E58DB981E08EB980B77B
S11303C0886080BF87B7826087BF83B7896083BF37
S11303D081B78FEF81BF1FB8779BFECF8FB180931A
S11303E01601789491E0809100018FB9779BFECF3C
S11303F0C09AC09880910001880F80930001809179
S11304000001811102C0909300012FEF31EE84E0CE
S1130410215030408040E1F700C000002FEF31EE62
S113042084E0215030408040E1F700C000002FEF0D
S113043031EE84E0215030408040E1F700C00000FC
S11304402FEF31EE84E0215030408040E1F700C0CE
S113045000002FEF31EE84E0215030408040E1F77E
S113046000C00000C0CFA29FB001B39FC001A39FF2
S1130470700D811D1124911DB29F700D811D1124D9
S10B0480911D0895F894FFCFCB
S113048801010204000001030FC0F9A4B09992828B
S1090498F88098FF7F00CC
S9030000FC
