S00C00006C6162362E73726563B3
S11300000C9497000C94B6000C94B6000C94B600B3
S11300100C94B6000C94B6000C94B6000C94B60084
S11300200C94DB050C9488050C944C050C94B600D8
S11300300C943A050C94B6000C94B6000C94B600DB
S11300400C949A040C94B6000C9492050C94B6008B
S11300500C94B6000C94B6000C94B6000C94B60044
S11300600C94B6000C94B6000C94B6000C94B60034
S11300700C94B6000C94B6000C94B6000C94B60024
S11300800C94B6000C94F9080C94B6003A091109C2
S11300901109110911091109110911093A09110963
S11300A01109110911091109110911094409110949
S11300B0110911091109110911091109110911096C
S11300C01109110911091109110911094409110929
S11300D0110911091109110911091109110911094C
S11300E01109110911091109110911095B091109F2
S11300F01109110911091109110911095F091109DE
S1130100110911091109110911091109110911091B
S11301101109110911091109110911096D091109AF
S11301201109110911091109110911092B091124C6
S11301301FBECFEFD0E1DEBFCDBF12E0A0E0B1E043
S1130140EAE6FCE100E00BBF02C007900D92AA347E
S1130150B107D9F723E0AAE4B2E001C01D92A9389F
S1130160B207E1F70E949E0C0C94330E0C9400002D
S113017087EF87BB80E58DB91EB8089580B7886086
S113018080BF87B7816087BF85E083BF08958FB53F
S113019082608FBD8EB589618EBD10927A0080E039
S11301A090EC9BBD8ABD80E090EF97BD86BD87B77C
S11301B0806187BF089587B7806487BF8BE785BD5B
S11301C080EF83BD0895EBE8F0E08081816880834F
S11301D0EAE8F0E080818960808310928C008DECE5
S11301E090E0909387008093860008958FEF8ABBF8
S11301F088EE82B984E081BB83E084BB81E0809394
S11302004F0285E58FB9779BFECF8FB180934C0267
S11302100895E1E6F0E080818F778083E2E6F0E004
S113022080818F77808387E687B987E886B90895C8
S113023088E18EBD87B78F7E87BF089588E785BD27
S113024008958FB9779BFECF8FB10895482FE82F7B
S1130250F0E099B3EE0FFF1FEF5AFD4F208131817B
S1130260220F331F306E892F90E002C09595879539
S11302704A95E2F781709927282B392B3183208303
S113028081E02115304F09F080E008950895089524
S1130290813009F44EC008F4ACC0823019F08330C8
S11302A0C1F108958091030180FF37C0E0910401FA
S11302B08DECE89F912D11249695969596952AE0BC
S11302C0929FE0191124F0E0E05CFE4F908190933E
S11302D09A02E0910401E89FE12D1124E695E69548
S11302E0E695E89F912D11249695969596952AE08A
S11302F0929FE0191124F0E0E05CFE4F908190930E
S11303009B0290910601990F990F909520914B01B2
S1130310A9C08091030180FD0CC08FEF80939A02E5
S113032080939B0280939C0280939D0280939E0203
S11303300895E09101018DECE89F912D112496958B
S1130340969596952AE0929FE0191124F0E0E05CDE
S1130350FE4F908190939A02E0910101E89FE12D74
S11303601124E695E695E695E89F912D112496953E
S1130370969596952AE0929FE0191124F0E0E05CAE
S1130380FE4F908190939B0290910601990F990FD3
S1130390909520914B01922390939C02E09102014D
S11303A0E89F912D11249695969596952AE0929F13
S11303B0E0191124F0E0E05CFE4F908190939D02DF
S11303C0E0910201E89FE12D1124E695E695E6957A
S11303D0E89F812D11248695869586959AE0899FBC
S11303E0E0191124F0E0E05CFE4F808180939E02CE
S11303F00895E09104018DECE89F912D11249695C8
S1130400969596952AE0929FE0191124F0E0E05C1D
S1130410FE4F908190939A02E0910401E89FE12DB0
S11304201124E695E695E695E89F912D112496957D
S1130430969596952AE0929FE0191124F0E0E05CED
S1130440FE4F908190939B0240910301909106018D
S1130450242F217030E0F901E05CFE4F990F990FD1
S113046090952285922390939C02E0910501E89F48
S1130470912D11249695969596952AE0929FE019D0
S11304801124F0E0E05CFE4F908190939D02E09196
S1130490050198CF80914E02823009F440C0833028
S11304A0C9F5E0914C0280914D02E370F0E0EE0F4B
S11304B0FF1FEE0FFF1F8370E82BE95DFE4F808165
S11304C0813009F484C0823051F4809101018B336E
S11304D008F08AC0809101018F5F809301018091AF
S11304E04C02E0914D02EC70F0E0F595E795F5953E
S11304F0E7958C70E82BE95DFE4F8081813009F42B
S11305005CC0823039F480910201873108F482C0E2
S11305101092020180914D0280934C020895E09163
S11305204C0280914D02E370F0E0EE0FFF1FEE0FDE
S1130530FF1F8370E82BE95DFE4F8081813049F114
S1130540823051F4809104018B3308F054C08091BF
S113055004018F5F8093040180914C02E0914D026D
S1130560EC70F0E0F595E795F595E7958C70E82B40
S1130570E95DFE4F80818130B1F0823059F680917F
S11305800501873170F5809105018F5F8093050126
S1130590C1CF809104018823A9F180910401815085
S11305A080930401D9CF80910501882339F180918A
S11305B00501815080930501ADCF8091020188230C
S11305C029F180910201815080930201A3CF80918F
S11305D00101882361F08091010181508093010120
S11305E07ECF1092050196CF1092010178CF8BE354
S11305F08093010174CF10920401AECF87E1809300
S1130600050188CF8BE380930401A6CF87E1809313
S1130610020180CF809102018F5F809302017ACF23
S1130620809106018130B9F080910601811112C0D8
S113063088E18EBD87B78F7E87BF10924A0280E221
S113064080930701809308018093090180930A0134
S113065080930B01089520910501909102012913C3
S1130660E3CF20910401909101012913DDCF209162
S1130670030190914B022913D7CF9FB592609FBD80
S11306809EB599619EBD10927A0020E030EC3BBD8E
S11306902ABD20E030EF37BD26BD97B7906197BFE4
S11306A080934A0281E4809307019CE490930801BB
S11306B08093090182E580930A018DE480930B0104
S11306C0B3CF88E18EBD87B78F7E87BF10924A0271
S11306D080914B02823330F58091050180930201B1
S11306E080910401809301018091030180934B0266
S11306F080914B028233B8F090914B028CE3891BBA
S113070080934B02809101018F5F8093010180915E
S113071001018C3338F010920101809102018F5F46
S113072080930201089580914B02865F80934B026F
S11307300895AF92BF92CF92DF92EF92FF920F9300
S11307401F93CF93DF9388B3806F88BB1ABA8FEF60
S11307508BBB25E02A95F1F7000069B38091510223
S113076090915202880F991F906E262F217030E0CD
S1130770822B932B90935202809351028115904FB8
S113078009F4ACC089B32091530230915402220F72
S1130790331F306E81FB442740F950E0242B352B66
S11307A030935402209353022115304F09F4B4C0FE
S11307B029B38091550290915602880F991F906E2B
S11307C022FBCC24C0F8D12CC82AD92AD0925602B4
S11307D0C092550229B38091570290915802880F14
S11307E0991F906E23FBAA24A0F8B12CA82AB92A39
S11307F0B0925802A092570229B380915902909165
S11308005A02880F991F906E24FBEE24E0F8F12C15
S11308108E299F2990935A02809359028115904FF3
S113082009F476C089B320915B0230915C02220FF7
S1130830331F306E85FB002700F910E0202B312B8D
S113084030935C0220935B022115304F09F454C0AD
S113085029B380915D0290915E02880F991F906E7A
S113086026FB222720F9C22F20E0D22F8C2B9D2B90
S113087090935E0280935D028115904FB1F188B32D
S11308808F7888BB8FEF8ABB8BBB929883B18F79AB
S113089083B9A998A99AE0914E02F0E0E55CFE4F75
S11308A080818FB9779BFECF8FB180934D02909159
S11308B04D0280914C0298130E944A02929A1E9A09
S11308C088B38F7088BBDF91CF911F910F91FF90F8
S11308D0EF90DF90CF90BF90AF90089580914E023B
S11308E08095817080934E024DCF80914A02813071
S11308F031F60E946103C3CF83E080934E0290914E
S1130900060181E089278093060110924B02A0CF53
S113091082E080934E0286CF60E070E081E090E454
S11309200E942A0B45CF369A349BFECF349A85B168
S113093083BD08951F920F920FB60F9211240BB628
S11309400F922F933F934F935F936F937F938F9364
S11309509F93AF93BF93EF93FF930E9410038091F3
S113096003018F5F809303019091030189E8989FAD
S1130970812D11248295869587702CE3829F90198E
S11309801124911107C0809104018F5F80930401A9
S113099010920301309104019091030189E8989F1A
S11309A0212D11242295269527704CE3249F90191C
S11309B0112491110CC0389F812D112482958695A4
S11309C08770849F30191124332309F44BC090910C
S11309D005018BEA989F812D112482958F7028E15F
S11309E0829F90191124911102C01092050142E0D6
S11309F061EB72E080E90E949D098091B10290E070
S1130A00982F88272091B202822B880F892F881F64
S1130A10990B919590938C0280938B024AE069E83C
S1130A2072E00E94E00D8091890280931A01809106
S1130A308A0280931B015D9BFECF80EF8CB9FF91EE
S1130A40EF91BF91AF919F918F917F916F915F9142
S1130A504F913F912F910F900BBE0F900FBE0F90AF
S1130A601F901895809105018F5F80930501109266
S1130A700401ADCF1F920F920FB60F9211248F93E2
S1130A809F9395B383E0892785BB9F918F910F90A6
S1130A900FBE0F901F9018951F920F920FB60F92D2
S1130AA011240BB60F922F933F934F935F936F9341
S1130AB07F938F939F93AF93BF93EF93FF93809113
S1130AC050028F5F8B30A8F480935002FF91EF9116
S1130AD0BF91AF919F918F917F916F915F914F9152
S1130AE03F912F910F900BBE0F900FBE0F901F9050
S1130AF01895109250020E949903369A349BFECFA7
S1130B00349A85B183BD87E091E00E94FF05DECF72
S1130B101F920F920FB60F9211240F900FBE0F90D9
S1130B201F9018951F920F920FB60F9211240BB6B7
S1130B300F922F933F934F935F936F937F938F9372
S1130B409F93AF93BF93EF93FF9380910001813004
S1130B50D1F00E94190A8093210181E08093000161
S1130B60FF91EF91BF91AF919F918F917F916F9181
S1130B705F914F913F912F910F900BBE0F900FBE3D
S1130B800F901F9018950E94190A809320011092CB
S1130B900001E6CF129A1A9A1F98179A1A9A8FE1AF
S1130BA093E00197F1F700C000001A9890EA9A9533
S1130BB0F1F7179808951F920F920FB60F92112410
S1130BC08F9381E0809379038F910F900FBE0F90E4
S1130BD01F90189591E0811101C090E09FB9779B17
S1130BE0FECF6FB9779BFECF8091620088608093BF
S1130BF0620080916200877F809362000895CF93A2
S1130C00C09161028C0F911DFC01608181E00E9402
S1130C10EA0581E08C0F80936102803181F080329B
S1130C2011F0CF91089585ED8A95F1F7000060E801
S1130C3080E00E94EA0510926102CF910895F5EDDB
S1130C40FA95F1F7000060EC80E00E94EA058091DB
S1130C506102E5CFEF92FF920F931F93CF93DF933F
S1130C601F92CDB7DEB7182F660F660F660F605C54
S1130C7080E099830E94EA0585ED8A95F1F70000EA
S1130C80E12E9981F92E8701085F1F4FF7016191C9
S1130C907F0181E00E94EA05F5EDFA95F1F7000085
S1130CA0E016F10699F70F90DF91CF911F910F9104
S1130CB0FF90EF90089590E4899F600D1124605C8B
S1130CC080E00C94EA05CF938823B9F1C82F8436C9
S1130CD098F48A30D8F48DECC89F812D1124869520
S1130CE0869586956C2F2AE0829F60191124605D99
S1130CF081E0CF910C94EA0569E2869F612D11246D
S1130D0062956F70605D81E00E94EA0589E2C89F88
S1130D10812D112482958F709C2F24E6829F901937
S1130D2011246DEC969F612D112466956695669548
S1130D30605D81E00E94EA05CECF60E381E0CF915F
S1130D400C94EA05CF9387FD03C0CF910C946306FE
S1130D50C82F6DE281E00E94EA0585ED8A95F1F7DE
S1130D6000008C2F8195CF910C9463066EE080E097
S1130D700C94EA056CE080E00C94EA056EE180E0F6
S1130D800C94EA0568E180E00C94EA05E2E6F0E000
S1130D908081886080838081877F8083089561E07B
S1130DA080E00E94EA058FE19CE10197F1F700C021
S1130DB00000089562E080E00E94EA058FE697E172
S1130DC00197F1F700C00000089560EC80E00C94F6
S1130DD0EA0560E880E00C94EA05CF93C0E160E2A4
S1130DE081E00E94EA0585ED8A95F1F70000C15083
S1130DF0B1F7CF910895682F81E00C94EA050F9321
S1130E001F93CF938C0140E050E0C0E0F801E40F61
S1130E10F51F608181E00E94EA0585ED8A95F1F76E
S1130E200000CF5F4C2F50E0F80101900020E9F75B
S1130E309F01201B310B225031092417350730F74D
S1130E40CF911F910F9108958FEF99EF0197F1F7CB
S1130E5000C0000088E08093610060E380E00E94AD
S1130E60EA058FE59DE60197F1F700C0000060E315
S1130E7080E00E94EA058FE59DE60197F1F700C046
S1130E80000060E380E00E94EA058FE59DE601979B
S1130E90F1F700C0000068E380E00E94EA058FE1FA
S1130EA09EE40197F1F700C0000068E080E00E9432
S1130EB0EA058FE19EE40197F1F700C0000061E0CC
S1130EC080E00E94EA058FE19EE40197F1F700C0FB
S1130ED0000066E080E00E94EA058FE19EE401974D
S1130EE0F1F700C000006CE080E00E94EA058FE1A9
S1130EF09EE40197F1F700C0000008958F929F923D
S1130F00AF92BF92CF92DF92EF92FF920F931F9313
S1130F10CF93DF93CDB7DEB769970FB6F894DEBFF2
S1130F200FBECDBFF42E122F002359F04B015C01EC
S1130F308824B7FC83949924AA24BB24082D97FD04
S1130F408FC0112309F484C09E012F5F3F4F6901B4
S1130F50590188248A94810E912C3FEF831A930AB5
S1130F608C0C9D1C2AE030E040E050E00E94820D91
S1130F70E62F2A8B3B8B4C8B5D8B6A897B898C8912
S1130F809D8920E32E0FF50121935F01E815F905F2
S1130F9049F7BB24B394B10EF601E10FF11D2EE223
S1130FA020832AE030E040E050E00E94820DE62FEA
S1130FB02A8B3B8B4C8B5D8B6E8B7F8B888F998FB1
S1130FC06A897B898C899D8911E01B0DD601AB0D43
S1130FD0B11DE05DEC93B12E61157105810591059C
S1130FE001F7FF2061F0E11039C080E21F1538F4E9
S1130FF0F601E10FF11D80831F5F1F11F9CF00235C
S113100031F0F601E10FF11D8DE280831F5F115075
S1131010F601E10FF11D608181E00E94EA0535EDE2
S11310203A95F1F700001111F2CF69960FB6F894D2
S1131030DEBF0FBECDBFDF91CF911F910F91FF9007
S1131040EF90DF90CF90BF90AF909F908F900895D6
S1131050B12C9E012F5F3F4F6901A3CF80E3C6CF20
S113106090958095709561957F4F8F4F9F4F69CF75
S11310705F926F927F928F929F92AF92BF92CF9224
S1131080DF92EF92FF920F931F93CF93DF93CDB72D
S1131090DEB761970FB6F894DEBF0FBECDBFA62EA4
S11310A0542E622E792E771C7724771CB72CC72CEC
S11310B0D12CEE27FF27EC19FD098E279F27FC0171
S11310C0EC0DFD1D442309F48EC0CE0101967C0174
S11310D08C0188248A94840E912C9FEF891A990A92
S11310E08E0C9F1C6AE070E0CF010E946E0D262FCB
S11310F0E22FF72F805DD8018D938D01A815B905D6
S113110089F701E0050DD701A50DB11D8EE28C9381
S11311106AE070E0CF010E946E0D262FE22FF72FB8
S113112011E0100FD701A00FB11D805D8C93012F2A
S1131130309771F7611015C0772039F011E0100F66
S1131140F701E00FF11D8DE28083AA2041F1812F88
S113115090E02A2D30E0821793070CF5B12C40E281
S11311600CC0AA20A1F0812F90E02A2D30E02C1988
S11311703D09821793075CF440E31F5FF701E80F12
S1131180F91F4083812F90E082179307B4F3BB20AB
S113119031F0F701E10FF11D8DE280831F5F1150E3
S11311A0F701E10FF11D608181E00E94EA0595EDF0
S11311B09A95F1F700001111F2CF61960FB6F894E9
S11311C0DEBF0FBECDBFDF91CF911F910F91FF9076
S11311D0EF90DF90CF90BF90AF909F908F907F90D3
S11311E06F905F90089500E0CE0101967C0190CF4E
S11311F008951F920F920FB60F9211240BB60F92FF
S11312002F933F938F939F93AF93BF93EF93FF934A
S1131210E09171008E2F90E0FC013897E135F105E3
S1131220B0F0809171008093B30284E080937400E5
S1131230FF91EF91BF91AF919F918F913F912F912A
S11312400F900BBE0F900FBE0F901F901895EA5B86
S1131250FF4F0C94A10D80916202E091B402F091D1
S1131260B502E80FF11D80917300808384E98093B7
S11312707400DECF8091B6028093730010926202F4
S113128085E880937400D4CF809162029091B70274
S1131290891760F7E091B402F091B50291E0980FDC
S11312A090936202E80FF11D80818093730085E8BA
S11312B080937400BDCF85EA80937400B9CF2091E8
S11312C062028091B70230E090E001972817390755
S11312D0DCF485EC80937400ABCFE091B402F09120
S11312E0B5028091620221E0280F20936202E80F88
S11312F0F11D8091730080838091B70230E090E00B
S11313000197281739072CF385E88093740090CF50
S113131080917400817008959091740090FDFCCFC9
S11313208E7F8093B6027093B5026093B4024093AB
S1131330B70285EA8093740008959091740090FD3B
S1131340FCCF81608093B6027093B5026093B402BF
S11313504093B70285EA8093740008958FEF8093D9
S11313607300109271008CE08093700008955D9B6F
S1131370FECF8CB95D9BFECF089590919B0095FFA5
S1131380FCCF80939C0080919B0085FFFCCF089547
S1131390FC019081992349F031965D9BFECF9CB965
S11313A05D9BFECF91919111F8CF0895FC012081AE
S11313B0222371F0319690919B0095FFFCCF2093EE
S11313C09C0090919B0095FFFCCF21912111F3CFBC
S11313D008959C01FC014491442369F00196F901AC
S11313E024915D9BFECF2CB95D9BFECF9C01FC013B
S11313F044914111F3CF08958AB188698AB9E5E926
S1131400F0E08081866080831092900087E689B93D
S11314100895EAE9F0E0808188618083EDE9F0E0F5
S11314208081866080831092980087E6809399007B
S1131430089580E89EE302C0019721F05F9BFCCFF2
S11314408CB1089580E0089580E89EE302C001977E
S113145039F020919B0027FFFACF80919C000895DA
S113146080E0089584E18093580341E068E573E0E7
S113147082E20E948C090E9488098111FCCF8FEAC4
S113148094E00197F1F700C0000041E06AE773E0DF
S113149082E20E949D090E9488098111FCCF8091FB
S11314A07A030895E8E5F3E080E280831182809175
S11314B0940290919502928383831482109279030B
S11314C045E0BF0182E20C948C0980E480935803C8
S11314D010925903809192029091930290935A032F
S11314E080935B0310925C0310925D031092790366
S11314F046E068E573E082E20E948C0980917903FA
S11315008823E1F30895E8E5F3E080E48083118221
S1131510809196029091970292838383148281E052
S1131520858346E0BF0182E20E948C092FEF87EE9B
S113153093E0215080409040E1F700C000000895FE
S113154081E18093580341E068E573E082E20E9400
S11315508C0987ED94E00197F1F700C0000008952D
S113156083E28093580381E08093590342E068E565
S113157073E082E20E948C090E9488098111FCCFE9
S11315808FEA94E00197F1F700C0000048E061E6BB
S113159073E082E20E949D090E9488098111FCCFB8
S11315A0089582E28093580381E08093590342E0D6
S11315B068E573E082E20E948C090E948809811127
S11315C0FCCF8FEA94E00197F1F700C0000048E0F7
S11315D061E673E082E20E949D090E9488098111FC
S11315E0FCCF089582E48093580381E080935903EB
S11315F042E068E573E082E20E948C090E94880957
S11316008111FCCF8FEA94E00197F1F700C000004C
S113161048E061E673E082E20C949D0983E48093E0
S1131620580381E08093590342E068E573E082E265
S11316300E948C090E9488098111FCCF8FEA94E0F2
S11316400197F1F700C0000048E061E673E082E230
S11316500C949D09E8E5F3E022E120831182928352
S113166083837483658346E0BF0182E20E948C0910
S11316708FE39CE90197F1F700C000000895E8E5C5
S1131680F3E081E0808380E5818385E0828343E029
S1131690BF0182E20E948C092FEF8CE498E0215074
S11316A080409040E1F700C0000061E070E081E01C
S11316B090E00C942A0B8DE892E00E941D0E90930A
S11316C093028093920283E692E00E94150E809327
S11316D09002E8E5F3E081E0808381E5818385E0A1
S11316E0828343E0BF0182E20E948C092FEF8BEDDD
S11316F095E0215080409040E1F700C0000061E097
S113170070E081E090E00C942A0B88E992E00E945A
S11317101D0E909397028093960283E692E00E94B6
S1131720150E80939002E8E5F3E081E0808381E583
S1131730818385E0828343E0BF0182E20E948C09B9
S11317402FEF8BED95E0215080409040E1F700C0F1
S1131750000060E070E082E093E30E942A0B61E005
S113176071E082E091E30E942A0B61E070E081E085
S113177090E00C942A0B80E18093580341E068E5E3
S113178073E082E20E948C090E9488098111FCCFD7
S11317908FEA94E00197F1F700C0000048E069E6A1
S11317A073E082E20E949D090E9488098111FCCFA6
S11317B08CE491E00E94D60985E891E00E94D60964
S11317C08EEB91E00E94D60980916A034AE060EEB4
S11317D072E090E00E94E00D80EE92E00E94D60953
S11317E08BEC91E00E94D60980916B034AE060EE95
S11317F072E090E00E94E00D80EE92E00E94D60933
S11318008BEB91E00C94D609FF920F931F93CF9327
S1131810DF93CDB7DEB7A8970FB6F894DEBF0FBE3F
S1131820CDBF89ED91E00E94D60989EE91E00E9436
S1131830D60901E613E0F801808140E160EE72E030
S113184090E00E94E00D80EE92E00E94D6098BEBBE
S113185091E00E94D60989EF91E00E94D609F8012F
S113186081814AE060EE72E090E00E94E00D80EE3B
S113187092E00E94D6098BEB91E00E94D609F80110
S1131880F38089E092E00E94D6094AE060EE72E0BB
S11318908F2D90E00E94E00D80EE92E00E94D60928
S11318A08BEB91E00E94D60989E192E00E94D6096F
S11318B0F801828140E1BE016F5F7F4F90E00E949A
S11318C0E00DCE0101960E94D6098BEB91E00E94B7
S11318D0D60989E292E00E94D609F801838140E1A9
S11318E0BE016F5F7F4F90E00E94E00DCE01019634
S11318F00E94D6098BEB91E00E94D60989E392E01D
S11319000E94D609F801848140E160EE72E090E023
S11319100E94E00D80EE92E00E94D6098BEB91E0EC
S11319200E94D609A8960FB6F894DEBF0FBECDBFAD
S1131930DF91CF911F910F91FF90089587EF87BB9F
S113194080E58DB91EB880B7886080BF87B7816095
S113195087BF85E083BF8FB582608FBD8EB58961F7
S11319608EBD10927A0080E090EC9BBD8ABD80E031
S113197090EF97BD86BD87B7806187BF88E18EBD34
S113198087B78F7E87BF87B7806487BF8BE785BDA6
S113199080EF83BD80918B00816880938B00809160
S11319A08A00896080938A0010928C008DEC90E00C
S11319B090938700809386000E94AE091092AF0234
S11319C042E06FEA72E080E90E948C090E94FC09FF
S11319D08FEF8ABB88EE82B984E081BB83E084BB4D
S11319E081E080934F0285E58FB9779BFECF8FB15D
S11319F080934C02809161008F7780936100809185
S1131A0062008F778093620087E687B987E886B99A
S1131A100E94240789B7806889BF8AB7806C8ABF0F
S1131A200E94CA052FEF81EE94E02150804090403F
S1131A30E1F700C0000078940E943F0B2FEF81EE85
S1131A4094E0215080409040E1F700C0000086E817
S1131A5099E290939502809394020E94520A2FEF88
S1131A6081EE94E0215080409040E1F700C00000F6
S1131A70CFEF80914E020E94480110929102109281
S1131A806602809166028A30D8F0F3CF8091910289
S1131A908295807F88BBE0919102F0E0E656FD4F8D
S1131AA080818BBB25E32A95F1F70000CBBB85E051
S1131AB08A95F1F70000809191028F5F80939102E3
S1131AC080919102853010F3809166028F5F80933C
S1131AD06602809166028A3098F3CBCF97FB072E7B
S1131AE016F4009407D077FD09D00E94AA0D07FCD4
S1131AF005D03EF4909581959F4F0895709561951A
S1131B007F4F0895052E97FB1EF400940E94990DB3
S1131B1057FD07D00E94BE0D07FC03D04EF40C9471
S1131B20990D50954095309521953F4F4F4F5F4FFC
S1131B30089590958095709561957F4F8F4F9F4F35
S1131B400895EE0FFF1F0024001C0BBE0790F691B2
S1131B50E02D0994AA1BBB1B51E107C0AA1FBB1FA0
S1131B60A617B70710F0A61BB70B881F991F5A9525
S1131B70A9F780959095BC01CD010895A1E21A2E94
S1131B80AA1BBB1BFD010DC0AA1FBB1FEE1FFF1F1D
S1131B90A217B307E407F50720F0A21BB30BE40B6D
S1131BA0F50B661F771F881F991F1A9469F76095B4
S1131BB07095809590959B01AC01BD01CF0108956E
S1131BC0BB274A3031F4992322F4BDE290958195E4
S1131BD09F4F0C94EC0DBB27FB015527AA27880FB8
S1131BE0991FAA1FA41710F0A41B83955051B9F78D
S1131BF0A05DAA3308F0A95DA193009779F7B1110C
S1131C00B1931192CB010C94050EDC01FC01672FFA
S1131C1071917723E1F7329704C07C916D937083BF
S1131C206291AE17BF07C8F30895E199FECF9FBB39
S1131C308EBBE09A99278DB30895A8E1B0E042E005
S1131C4050E00C94250EDC01CB01FC01E199FECFA0
S1131C5006C0FFBBEEBBE09A31960DB20D92415027
S10D1C605040B8F70895F894FFCF40
S1131C6A01380B28370B0120202020202020202097
S1131C7A20202020202020494E3A20204F55543A33
S1131C8A202020202020200002010001000002025E
S1131C9A0000010001020001020400C00183FF4F99
S1131CAAC0F9A4B0999282F88098FFFC536934373A
S1131CBA3334205265763A20206C617374203220C2
S1131CCA646967697473206F662070617274206E28
S1131CDA6F2E202020636869702072657620202088
S1131CEA20200A0D0020202020202020202020202F
S1131CFA20202D2D2D2D2D2D2D2D2D2D2D2D2D2D20
S1131D0A2D2D2D2D2D2D2D2D2D2D2D2020202D2D1C
S1131D1A2D2D2D2D2D2D20202020200A0D002020B0
S1131D2A20202020202020202020202020202020A5
S1131D3A202020202020202000464D5F5253515F4E
S1131D4A5354415455533A20007374617475732083
S1131D5A627974652020203A0072657370312020FC
S1131D6A202020202020203A00667265712020203D
S1131D7A202020202020203A00667265712068699C
S1131D8A676820202020203A0066726571206C6FF3
S1131D9A772020202020203A0072737369202020A3
S10D1DAA202020202020203A000011
S9030000FC
