:100000000C9497000C94B6000C94B6000C94B600B7
:100010000C94B6000C94B6000C94B6000C94B60088
:100020000C9479070C9426070C94EA060C94B600FD
:100030000C94D8060C94B6000C94B6000C94B60040
:100040000C9438060C94B6000C9430070C94B6004F
:100050000C94B6000C94B6000C94B6000C94B60048
:100060000C94B6000C94B6000C94B6000C94B60038
:100070000C94B6000C94B6000C94B6000C94B60028
:100080000C94B6000C94970A0C94B600D80AAF0AE8
:10009000AF0AAF0AAF0AAF0AAF0AAF0AD80AAF0A6F
:1000A000AF0AAF0AAF0AAF0AAF0AAF0AE20AAF0A55
:1000B000AF0AAF0AAF0AAF0AAF0AAF0AAF0AAF0A78
:1000C000AF0AAF0AAF0AAF0AAF0AAF0AE20AAF0A35
:1000D000AF0AAF0AAF0AAF0AAF0AAF0AAF0AAF0A58
:1000E000AF0AAF0AAF0AAF0AAF0AAF0AF90AAF0AFE
:1000F000AF0AAF0AAF0AAF0AAF0AAF0AFD0AAF0AEA
:10010000AF0AAF0AAF0AAF0AAF0AAF0AAF0AAF0A27
:10011000AF0AAF0AAF0AAF0AAF0AAF0A0B0BAF0ABA
:10012000AF0AAF0AAF0AAF0AAF0AAF0AC90A112471
:100130001FBECFEFD0E1DEBFCDBF12E0A0E0B1E047
:10014000E4ECFFE100E00BBF02C007900D92A43584
:10015000B107D9F723E0A4E5B2E001C01D92A539AB
:10016000B207E1F70E943C0E0C94E00F0C940000E3
:1001700087EF87BB80E58DB91EB8089580B788608A
:1001800080BF87B7816087BF85E083BF08958FB543
:1001900082608FBD8EB589618EBD10927A0080E03D
:1001A00090EC9BBD8ABD80E090EF97BD86BD87B780
:1001B000806187BF089587B7806487BF8BE785BD5F
:1001C00080EF83BD0895EBE8F0E080818168808353
:1001D000EAE8F0E080818960808310928C008DECE9
:1001E00090E0909387008093860008958FEF8ABBFC
:1001F00088EE82B984E081BB83E084BB81E0809398
:10020000590285E58FB9779BFECF8FB18093560257
:100210000895E1E6F0E080818F778083E2E6F0E008
:1002200080818F77808387E687B987E886B90895CC
:1002300088E18EBD87B78F7E87BF089588E785BD2B
:1002400008958FB9779BFECF8FB10895482FE82F7F
:10025000F0E099B3EE0FFF1FE55AFD4F2081318189
:10026000220F331F306E892F90E002C0959587953D
:100270004A95E2F781709927282B392B3183208307
:1002800081E02115304F09F080E008950895089528
:10029000813009F44EC008F4ACC0823019F08330CC
:1002A000C1F1089580910E0180FF37C0E0910F01E8
:1002B0008DECE89F912D11249695969596952AE0C0
:1002C000929FE0191124F0E0E55BFE4F908190933E
:1002D000A602E0910F01E89FE12D1124E695E69535
:1002E000E695E89F912D11249695969596952AE08E
:1002F000929FE0191124F0E0E55BFE4F908190930E
:10030000A70290911101990F990F90952091560194
:10031000A9C080910E0180FD0CC08FEF8093A602D2
:100320008093A7028093A8028093A9028093AA02D7
:100330000895E0910C018DECE89F912D1124969584
:10034000969596952AE0929FE0191124F0E0E55BDE
:10035000FE4F90819093A602E0910C01E89FE12D61
:100360001124E695E695E695E89F912D1124969542
:10037000969596952AE0929FE0191124F0E0E55BAE
:10038000FE4F90819093A70290911101990F990FC0
:1003900090952091560192239093A802E0910D012F
:1003A000E89F912D11249695969596952AE0929F17
:1003B000E0191124F0E0E55BFE4F90819093A902D3
:1003C000E0910D01E89FE12D1124E695E695E69573
:1003D000E89F812D11248695869586959AE0899FC0
:1003E000E0191124F0E0E55BFE4F80818093AA02C2
:1003F0000895E0910F018DECE89F912D11249695C1
:10040000969596952AE0929FE0191124F0E0E55B1D
:10041000FE4F90819093A602E0910F01E89FE12D9D
:100420001124E695E695E695E89F912D1124969581
:10043000969596952AE0929FE0191124F0E0E55BED
:10044000FE4F90819093A70240910E01909111016F
:10045000242F217030E0F901E55BFE4F990F990FD1
:100460009095228592239093A802E0911001E89F35
:10047000912D11249695969596952AE0929FE019D4
:100480001124F0E0E55BFE4F90819093A902E0918A
:10049000100198CFCF93DF9380915802823009F4F6
:1004A00066C0833049F1882339F0809157028093E8
:1004B0005602DF91CF910895E09156028091570244
:1004C000E370F0E0EE0FFF1FEE0FFF1F8370E82BCD
:1004D000EE5CFE4F8081813009F49CC0823009F0CF
:1004E00063C08091A0029091A10286322AE2920715
:1004F00008F015C2449698C0E091560280915702C8
:10050000E370F0E0EE0FFF1FEE0FFF1F8370E82B8C
:10051000EE5CFE4F8081813009F471C0823051F46D
:1005200080910C018B3308F0FDC180910C018F5F2D
:1005300080930C0180915602E0915702EC70F0E03C
:10054000F595E795F595E7958C70E82BEE5CFE4FF9
:100550008081813009F407C1823009F0A6CF8091F3
:100560000D01873108F4E4C110920D019ECFE09196
:10057000560280915702E370F0E0EE0FFF1FEE0F7E
:10058000FF1F8370E82BEE5CFE4F8081813061F1AC
:10059000823051F480910F018B3308F0C6C18091F5
:1005A0000F018F5F80930F0180915602E0915702F7
:1005B000EC70F0E0F595E795F595E7958C70E82BF4
:1005C000EE5CFE4F8081813009F4BCC0823009F0BE
:1005D0006CCF80911001873108F0BEC0809110016E
:1005E0008F5F8093100161CF80910F01882309F400
:1005F00092C180910F01815080930F01D5CF8091DE
:100600000C01882309F483C180910C0181508093EF
:100610000C0190CF80910F01882309F4B2C0809122
:10062000A0029091A10244979093A1028093A0020E
:100630000E94F00B4091A0025091A1029A01ADECF2
:10064000BCEC0E94480FFC01F695E795F695E795FE
:10065000F695E7959F010E94480F96958795969588
:100660008795969587959C01220F331F880F991FB8
:10067000880F991F880F991F820F931FE81BF90B92
:10068000E050FF4F808180931C018EE280931B011C
:100690009A013695279536952795ABE7B4E10E94E8
:1006A000480FFC01F695E7959F01ADECBCEC0E946C
:1006B000480F9695879596958795969587959C0171
:1006C000220F331F880F991F880F991F880F991FBA
:1006D000820F931FE81BF90BE050FF4F808180933E
:1006E0001A019A01369527953695279536952795BF
:1006F000A5ECB0E20E94480FFC01F295E295EF7084
:10070000EF27FF70EF279F01ADECBCEC0E94480F74
:100710009695879596958795969587959C01220F36
:10072000331F880F991F880F991F880F991F820FF9
:10073000931FE81BF90BE050FF4F80818093190154
:100740009A01B5C080911001882349F08091100171
:10075000815080931001A9CE10921001A6CE87E19E
:1007600080931001A2CE80910D01882331F08091F9
:100770000D01815080930D0198CE87E180930D018A
:1007800094CE86E29AE29093A1028093A0020E9406
:10079000F00BC091A002D091A1029E01ADECBCEC87
:1007A0000E94480FAC01569547955695479556952A
:1007B000479550939C0240939B029A010E94480FD8
:1007C0009695879596958795969587959C01220F86
:1007D000331F880F991F880F991F880F991F820F49
:1007E000931F481B590BFA01E050FF4F8081809303
:1007F0001C018EE280931B019E013695279536954C
:100800002795ABE7B4E10E94480FAC015695479598
:100810009A01ADECBCEC0E94480F96958795969591
:100820008795969587959C01220F331F880F991FF6
:10083000880F991F880F991F820F931F481B590B10
:10084000FA01E050FF4F808180931A019E01369596
:1008500027953695279536952795A5ECB0E20E9409
:10086000480FAC01529542954F7045275F70452760
:100870009A01ADECBCEC0E94480F96958795969531
:100880008795969587959C01220F331F880F991F96
:10089000880F991F880F991F820F931F481B590BB0
:1008A000FA01E050FF4F8081809319019E0132953B
:1008B00022952F7023273F702327A7E4B3E00E94DF
:1008C000480FAC01569547955695479556954795CF
:1008D0009A01ADECBCEC0E94480F969587959695D1
:1008E0008795969587959C01220F331F880F991F36
:1008F000880F991F880F991F820F931F481B590B50
:10090000FA01E050FF4F8081809318014DCE8BE3B8
:1009100080930C010FCE8BE380930F0145CE8AEBC1
:1009200092E282CE10920C0105CE10920F013CCEC5
:1009300080910D018F5F80930D01B7CD80911101E2
:100940008130B9F080911101811112C088E18EBD12
:1009500087B78F7E87BF1092540280E28093120186
:1009600080931301809314018093150180931601E5
:1009700008952091100190910D012913E3CF20914A
:100980000F0190910C012913DDCF20910E01909160
:1009900055022913D7CF9FB592609FBD9EB599612F
:1009A0009EBD10927A0020E030EC3BBD2ABD20E0D5
:1009B00030EF37BD26BD97B7906197BF8093540243
:1009C00081E4809312019CE49093130180931401BD
:1009D00082E5809315018DE480931601B3CF88E101
:1009E0008EBD87B78F7E87BF1092540280915502CB
:1009F000823330F58091100180930D0180910F01B9
:100A000080930C0180910E018093550280915502D4
:100A10008233B8F0909155028CE3891B8093550284
:100A200080910C018F5F80930C0180910C018C33BD
:100A300038F010920C0180910D018F5F80930D01B1
:100A4000089580915502865F809355020895AF9274
:100A5000BF92CF92DF92EF92FF920F931F93CF93AB
:100A6000DF9388B3806F88BB1ABA8FEF8BBB25E00A
:100A70002A95F1F7000069B380915B0290915C02C6
:100A8000880F991F906E262F217030E0822B932BB8
:100A900090935C0280935B028115904F09F4ACC087
:100AA00089B320915D0230915E02220F331F306EB8
:100AB00081FB442740F950E0242B352B30935E0214
:100AC00020935D022115304F09F4B4C029B3809101
:100AD0005F0290916002880F991F906E22FBCC24D8
:100AE000C0F8D12CC82AD92AD0926002C0925F02E5
:100AF00029B38091610290916202880F991F906ED4
:100B000023FBAA24A0F8B12CA82AB92AB092620229
:100B1000A092610229B38091630290916402880FD0
:100B2000991F906E24FBEE24E0F8F12C8E299F296A
:100B300090936402809363028115904F09F476C00C
:100B400089B32091650230916602220F331F306E07
:100B500085FB002700F910E0202B312B3093660233
:100B6000209365022115304F09F454C029B38091B8
:100B7000670290916802880F991F906E26FB2227CA
:100B800020F9C22F20E0D22F8C2B9D2B909368024E
:100B9000809367028115904FB1F188B38F7888BB3D
:100BA0008FEF8ABB8BBB929883B18F7983B9A99859
:100BB000A99AE0915802F0E0EA5BFE4F80818FB97C
:100BC000779BFECF8FB1809357029091570280910F
:100BD000560298130E944A02929A1E9A88B38F7006
:100BE00088BBDF91CF911F910F91FF90EF90DF9025
:100BF000CF90BF90AF9008958091580280958170FA
:100C0000809358024DCF80915402813031F60E947A
:100C1000EF04C3CF83E0809358029091110181E0EB
:100C200089278093110110925502A0CF82E0809312
:100C3000580286CF80910A01813051F063E070E064
:100C400081E090E40E94C80C81E080930A013ECFCD
:100C500060E070E081E090E40E94C80C10920A010C
:100C600035CF369A349BFECF349A85B183BD089533
:100C70001F920F920FB60F9211240BB60F922F9363
:100C80003F934F935F936F937F938F939F93AF9314
:100C9000BF93EF93FF930E949E0480910E018F5F9C
:100CA00080930E0190910E0189E8989F812D112467
:100CB0008295869587702CE3829F9019112491115B
:100CC00007C080910F018F5F80930F0110920E017A
:100CD00030910F0190910E0189E8989F212D1124E8
:100CE0002295269527704CE3249F90191124911189
:100CF0000CC0389F812D1124829586958770849F22
:100D000030191124332309F44BC0909110018BEA60
:100D1000989F812D112482958F7028E1829F9019D0
:100D20001124911102C01092100142E06DEB72E0AB
:100D300080E90E943B0B8091BD0290E0982F8827AC
:100D40002091BE02822B880F892F881F990B9195C5
:100D500090939602809395024AE063E972E00E94C4
:100D60008D0F80919302809325018091940280934E
:100D700026015D9BFECF80EF8CB9FF91EF91BF9173
:100D8000AF919F918F917F916F915F914F913F9123
:100D90002F910F900BBE0F900FBE0F901F901895C4
:100DA000809110018F5F8093100110920F01ADCFE1
:100DB0001F920F920FB60F9211248F939F9395B3AA
:100DC00083E0892785BB9F918F910F900FBE0F9075
:100DD0001F9018951F920F920FB60F9211240BB609
:100DE0000F922F933F934F935F936F937F938F93C4
:100DF0009F93AF93BF93EF93FF9380915A028F5FBE
:100E00008B30A8F480935A02FF91EF91BF91AF917C
:100E10009F918F917F916F915F914F913F912F9112
:100E20000F900BBE0F900FBE0F901F901895109251
:100E30005A020E942705369A349BFECF349A85B118
:100E400083BD82E191E00E949D07DECF1F920F9249
:100E50000FB60F9211240F900FBE0F901F90189590
:100E60001F920F920FB60F9211240BB60F922F9371
:100E70003F934F935F936F937F938F939F93AF9322
:100E8000BF93EF93FF9380910B018130D1F00E94CB
:100E9000B70B80932C0181E080930B01FF91EF91C0
:100EA000BF91AF919F918F917F916F915F914F9182
:100EB0003F912F910F900BBE0F900FBE0F901F9080
:100EC00018950E94B70B80932B0110920B01E6CF6F
:100ED000129A1A9A1F98179A1A9A8FE193E001971B
:100EE000F1F700C000001A9890EA9A95F1F7179868
:100EF00008951F920F920FB60F9211248F9381E0E5
:100F0000809385038F910F900FBE0F901F901895BF
:100F100091E0811101C090E09FB9779BFECF6FB93E
:100F2000779BFECF80916200886080936200809101
:100F30006200877F809362000895CF93C0916B0217
:100F40008C0F911DFC01608181E00E94880781E087
:100F50008C0F80936B02803181F0803211F0CF9141
:100F6000089585ED8A95F1F7000060E880E00E9421
:100F7000880710926B02CF910895F5EDFA95F1F77D
:100F8000000060EC80E00E94880780916B02E5CF52
:100F9000EF92FF920F931F93CF93DF931F92CDB7E2
:100FA000DEB7182F660F660F660F605C80E09983CE
:100FB0000E94880785ED8A95F1F70000E12E99815E
:100FC000F92E8701085F1F4FF70161917F0181E0D2
:100FD0000E948807F5EDFA95F1F70000E016F1069A
:100FE00099F70F90DF91CF911F910F91FF90EF90A4
:100FF000089590E4899F600D1124605C80E00C945A
:101000008807CF938823B9F1C82F843698F48A30A3
:10101000D8F48DECC89F812D1124869586958695F0
:101020006C2F2AE0829F60191124605D81E0CF91CE
:101030000C94880769E2869F612D112462956F7078
:10104000605D81E00E94880789E2C89F812D11249C
:1010500082958F709C2F24E6829F901911246DEC4D
:10106000969F612D1124669566956695605D81E079
:101070000E948807CECF60E381E0CF910C9488076F
:10108000CF9387FD03C0CF910C940108C82F6DE268
:1010900081E00E94880785ED8A95F1F700008C2F8A
:1010A0008195CF910C9401086EE080E00C94880744
:1010B0006CE080E00C9488076EE180E00C94880777
:1010C00068E180E00C948807E2E6F0E080818860C7
:1010D00080838081877F8083089561E080E00E9423
:1010E00088078FE19CE10197F1F700C000000895A7
:1010F00062E080E00E9488078FE697E10197F1F7B0
:1011000000C00000089560EC80E00C94880760E85F
:1011100080E00C948807CF93C0E160E281E00E94F8
:10112000880785ED8A95F1F70000C150B1F7CF919E
:101130000895682F81E00C9488070F931F93CF9335
:101140008C0140E050E0C0E0F801E40FF51F608141
:1011500081E00E94880785ED8A95F1F70000CF5F56
:101160004C2F50E0F80101900020E9F79F01201B6F
:10117000310B225031092417350730F7CF911F91D9
:101180000F9108958FEF99EF0197F1F700C00000DC
:1011900088E08093610060E380E00E9488078FE52B
:1011A0009DE60197F1F700C0000060E380E00E9437
:1011B00088078FE59DE60197F1F700C0000060E326
:1011C00080E00E9488078FE59DE60197F1F700C057
:1011D000000068E380E00E9488078FE19EE40197A9
:1011E000F1F700C0000068E080E00E9488078FE10E
:1011F0009EE40197F1F700C0000061E080E00E94EA
:1012000088078FE19EE40197F1F700C0000066E0D7
:1012100080E00E9488078FE19EE40197F1F700C00B
:1012200000006CE080E00E9488078FE19EE4019757
:10123000F1F700C0000008958F929F92AF92BF9285
:10124000CF92DF92EF92FF920F931F93CF93DF9392
:10125000CDB7DEB769970FB6F894DEBF0FBECDBF2E
:10126000F42E122F002359F04B015C018824B7FCA7
:1012700083949924AA24BB24082D97FD8FC01123A1
:1012800009F484C09E012F5F3F4F690159018824F2
:101290008A94810E912C3FEF831A930A8C0C9D1C2B
:1012A0002AE030E040E050E00E94200FE62F2A8B39
:1012B0003B8B4C8B5D8B6A897B898C899D8920E374
:1012C0002E0FF50121935F01E815F90549F7BB24BD
:1012D000B394B10EF601E10FF11D2EE220832AE056
:1012E00030E040E050E00E94200FE62F2A8B3B8B3D
:1012F0004C8B5D8B6E8B7F8B888F998F6A897B89F6
:101300008C899D8911E01B0DD601AB0DB11DE05DEF
:10131000EC93B12E611571058105910501F7FF2050
:1013200061F0E11039C080E21F1538F4F601E10FD9
:10133000F11D80831F5F1F11F9CF002331F0F601EB
:10134000E10FF11D8DE280831F5F1150F601E10F67
:10135000F11D608181E00E94880735ED3A95F1F733
:1013600000001111F2CF69960FB6F894DEBF0FBEE0
:10137000CDBFDF91CF911F910F91FF90EF90DF9044
:10138000CF90BF90AF909F908F900895B12C9E0109
:101390002F5F3F4F6901A3CF80E3C6CF9095809523
:1013A000709561957F4F8F4F9F4F69CF5F926F927E
:1013B0007F928F929F92AF92BF92CF92DF92EF92E5
:1013C000FF920F931F93CF93DF93CDB7DEB7619753
:1013D0000FB6F894DEBF0FBECDBFA62E542E622EE0
:1013E000792E771C7724771CB72CC72CD12CEE27AD
:1013F000FF27EC19FD098E279F27FC01EC0DFD1D31
:10140000442309F48EC0CE0101967C018C0188240E
:101410008A94840E912C9FEF891A990A8E0C9F1C36
:101420006AE070E0CF010E940C0F262FE22FF72F09
:10143000805DD8018D938D01A815B90589F701E06C
:10144000050DD701A50DB11D8EE28C936AE070E009
:10145000CF010E940C0F262FE22FF72F11E0100F63
:10146000D701A00FB11D805D8C93012F309771F7CC
:10147000611015C0772039F011E0100FF701E00F6F
:10148000F11D8DE28083AA2041F1812F90E02A2D69
:1014900030E0821793070CF5B12C40E20CC0AA2073
:1014A000A1F0812F90E02A2D30E02C193D09821700
:1014B00093075CF440E31F5FF701E80FF91F4083D7
:1014C000812F90E082179307B4F3BB2031F0F7012E
:1014D000E10FF11D8DE280831F5F1150F701E10FD5
:1014E000F11D608181E00E94880795ED9A95F1F7E2
:1014F00000001111F2CF61960FB6F894DEBF0FBE57
:10150000CDBFDF91CF911F910F91FF90EF90DF90B2
:10151000CF90BF90AF909F908F907F906F905F9093
:10152000089500E0CE0101967C0190CF08951F92AE
:101530000F920FB60F9211240BB60F922F933F9379
:101540008F939F93AF93BF93EF93FF93E0917100BD
:101550008E2F90E0FC013897E135F105B0F08091D5
:1015600071008093BF0284E080937400FF91EF913B
:10157000BF91AF919F918F913F912F910F900BBE93
:101580000F900FBE0F901F901895EA5BFF4F0C94C1
:101590003F0F80916C02E091C002F091C102E80F10
:1015A000F11D80917300808384E980937400DECF05
:1015B0008091C2028093730010926C0285E8809340
:1015C0007400D4CF80916C029091C302891760F7A8
:1015D000E091C002F091C10291E0980F90936C02EB
:1015E000E80FF11D80818093730085E8809374007B
:1015F000BDCF85EA80937400B9CF20916C028091B1
:10160000C30230E090E0019728173907DCF485EC3D
:1016100080937400ABCFE091C002F091C102809141
:101620006C0221E0280F20936C02E80FF11D8091DD
:10163000730080838091C30230E090E00197281707
:1016400039072CF385E88093740090CF8091740063
:10165000817008959091740090FDFCCF8E7F8093EF
:10166000C2027093C1026093C0024093C30285EA34
:101670008093740008959091740090FDFCCF816078
:101680008093C2027093C1026093C0024093C30270
:1016900085EA8093740008958FEF80937300109211
:1016A00071008CE08093700008955D9BFECF8CB933
:1016B0005D9BFECF089590919B0095FFFCCF80939A
:1016C0009C0080919B0085FFFCCF0895FC019081D8
:1016D000992349F031965D9BFECF9CB95D9BFECF6F
:1016E00091919111F8CF0895FC012081222371F08E
:1016F000319690919B0095FFFCCF20939C00909198
:101700009B0095FFFCCF21912111F3CF08959C01FF
:10171000FC014491442369F00196F90124915D9BF9
:10172000FECF2CB95D9BFECF9C01FC014491411181
:10173000F3CF08958AB188698AB9E5E9F0E080813C
:10174000866080831092900087E689B90895EAE95F
:10175000F0E0808188618083EDE9F0E0808186603F
:1017600080831092980087E680939900089580E81E
:101770009EE302C0019721F05F9BFCCF8CB10895DE
:1017800080E0089580E89EE302C0019739F020913F
:101790009B0027FFFACF80919C00089580E0089578
:1017A00084E18093640341E064E673E082E20E9496
:1017B0002A0B0E94260B8111FCCF8FEA94E001973F
:1017C000F1F700C0000041E066E873E082E20E94A9
:1017D0003B0B0E94260B8111FCCF8091860308955C
:1017E000E4E6F3E080E2808311828091A002909190
:1017F000A1029283838314821092850345E0BF0186
:1018000082E20C942A0B80E48093640310926503B7
:1018100080919E0290919F0290936603809367034C
:1018200010926803109269031092850346E064E603
:1018300073E082E20E942A0B809185038823E1F302
:101840000895E4E6F3E080E4808311828091A202AF
:101850009091A30292838383148281E0858346E082
:10186000BF0182E20E942A0B2FEF87EE93E0215006
:1018700080409040E1F700C00000089581E180932E
:10188000640341E064E673E082E20E942A0B87ED84
:1018900094E00197F1F700C00000089583E280937F
:1018A000640381E08093650342E064E673E082E2D2
:1018B0000E942A0B0E94260B8111FCCF8FEA94E034
:1018C0000197F1F700C0000048E06DE673E082E2A6
:1018D0000E943B0B0E94260B8111FCCF089582E2EF
:1018E0008093640381E08093650342E064E673E0E3
:1018F00082E20E942A0B0E94260B8111FCCF8FEA04
:1019000094E00197F1F700C0000048E06DE673E055
:1019100082E20E943B0B0E94260B8111FCCF0895AE
:1019200082E48093640381E08093650342E064E68F
:1019300073E082E20E942A0B0E94260B8111FCCFE9
:101940008FEA94E00197F1F700C0000048E06DE6EF
:1019500073E082E20C943B0B83E48093640381E0A8
:101960008093650342E064E673E082E20E942A0B02
:101970000E94260B8111FCCF8FEA94E00197F1F7CA
:1019800000C0000048E06DE673E082E20C943B0B7F
:10199000E4E6F3E022E1208311829283838374835F
:1019A000658346E0BF0182E20E942A0B8FE39CE937
:1019B0000197F1F700C000000895E4E6F3E081E04C
:1019C000808380E5818385E0828343E0BF0182E2FA
:1019D0000E942A0B2FEF8CE498E021508040904029
:1019E000E1F700C0000061E070E081E090E00C945D
:1019F000C80C87E992E00E94CA0F90939F028093DF
:101A00009E028DE692E00E94C20F80939A02E4E665
:101A1000F3E081E0808381E5818385E0828343E098
:101A2000BF0182E20E942A0B2FEF8BED95E021503F
:101A300080409040E1F700C0000061E070E081E08C
:101A400090E00C94C80C84EA92E00E94CA0F909334
:101A5000A3028093A2028DE692E00E94C20F8093BF
:101A60009A02E4E6F3E081E0808381E5818385E00A
:101A7000828343E0BF0182E20E942A0B2FEF8BEDAD
:101A800095E0215080409040E1F700C0000060E008
:101A900070E082E093E30E94C80C61E071E082E0B4
:101AA00091E30E94C80C61E070E081E090E00C944A
:101AB000C80C80E18093640341E064E673E082E255
:101AC0000E942A0B0E94260B8111FCCF8FEA94E022
:101AD0000197F1F700C0000048E065E773E082E29B
:101AE0000E943B0B0E94260B8111FCCF87E591E001
:101AF0000E94740B80E991E00E94740B89EC91E0E4
:101B00000E94740B809176034AE06CEE72E090E0E4
:101B10000E948D0F8CEE92E00E94740B86ED91E096
:101B20000E94740B809177034AE06CEE72E090E0C3
:101B30000E948D0F8CEE92E00E94740B86EC91E077
:101B40000C94740BFF920F931F93CF93DF93CDB739
:101B5000DEB7A8970FB6F894DEBF0FBECDBF84EEF8
:101B600091E00E94740B84EF91E00E94740B0DE6EB
:101B700013E0F801808140E16CEE72E090E00E9499
:101B80008D0F8CEE92E00E94740B86EC91E00E9427
:101B9000740B84E092E00E94740BF80181814AE0AA
:101BA0006CEE72E090E00E948D0F8CEE92E00E944D
:101BB000740B86EC91E00E94740BF801F38084E1D1
:101BC00092E00E94740B4AE06CEE72E08F2D90E080
:101BD0000E948D0F8CEE92E00E94740B86EC91E0D7
:101BE0000E94740B84E292E00E94740BF8018281DF
:101BF00040E1BE016F5F7F4F90E00E948D0FCE01EC
:101C000001960E94740B86EC91E00E94740B84E3B1
:101C100092E00E94740BF801838140E1BE016F5F86
:101C20007F4F90E00E948D0FCE0101960E94740BB1
:101C300086EC91E00E94740B84E492E00E94740BA5
:101C4000F801848140E16CEE72E090E00E948D0F1B
:101C50008CEE92E00E94740B86EC91E00E94740B73
:101C6000A8960FB6F894DEBF0FBECDBFDF91CF911F
:101C70001F910F91FF90089587EF87BB80E58DB985
:101C80001EB880B7886080BF87B7816087BF85E056
:101C900083BF8FB582608FBD8EB589618EBD109276
:101CA0007A0080E090EC9BBD8ABD80E090EF97BD0C
:101CB00086BD87B7806187BF88E18EBD87B78F7E7D
:101CC00087BF87B7806487BF8BE785BD80EF83BD03
:101CD00080918B00816880938B0080918A0089605D
:101CE00080938A0010928C008DEC90E09093870096
:101CF000809386000E944C0B1092BB0242E06BEB7B
:101D000072E080E90E942A0B0E949A0B8FEF8ABB37
:101D100088EE82B984E081BB83E084BB81E080935C
:101D2000590285E58FB9779BFECF8FB1809356021C
:101D3000809161008F7780936100809162008F773E
:101D40008093620087E687B987E886B90E94C20857
:101D500089B7806889BF8AB7806C8ABF0E9468078C
:101D60002FEF81EE94E0215080409040E1F700C0D9
:101D7000000078940E94DD0C2FEF81EE94E021505A
:101D800080409040E1F700C0000086E899E290931F
:101D9000A1028093A0020E94F00B2FEF81EE94E04D
:101DA000215080409040E1F700C00000CFEF8091CB
:101DB00058020E94480110929D0210927002809178
:101DC00070028A30D8F0F3CF80919D028295807F97
:101DD00088BBE0919D02F0E0EA55FD4F80818BBB0E
:101DE00025E32A95F1F70000CBBB85E08A95F1F752
:101DF000000080919D028F5F80939D0280919D02E3
:101E0000853010F3809170028F5F80937002809113
:101E100070028A3098F3CBCF97FB072E16F400940C
:101E200007D077FD09D00E94570F07FC05D03EF47C
:101E3000909581959F4F0895709561957F4F089576
:101E4000052E97FB1EF400940E94370F57FD07D014
:101E50000E946B0F07FC03D04EF40C94370F509583
:101E60004095309521953F4F4F4F5F4F0895909586
:101E70008095709561957F4F8F4F9F4F0895EE0F1E
:101E8000FF1F0024001C0BBE0790F691E02D099463
:101E9000A29FB001B39FC001A39F700D811D1124AB
:101EA000911DB29F700D811D1124911D0895AA1BD3
:101EB000BB1B51E107C0AA1FBB1FA617B70710F035
:101EC000A61BB70B881F991F5A95A9F78095909567
:101ED000BC01CD010895A1E21A2EAA1BBB1BFD0176
:101EE0000DC0AA1FBB1FEE1FFF1FA217B307E407F9
:101EF000F50720F0A21BB30BE40BF50B661F771F51
:101F0000881F991F1A9469F7609570958095909530
:101F10009B01AC01BD01CF010895BB274A3031F4CC
:101F2000992322F4BDE2909581959F4F0C94990FCF
:101F3000BB27FB015527AA27880F991FAA1FA417A3
:101F400010F0A41B83955051B9F7A05DAA3308F097
:101F5000A95DA193009779F7B111B1931192CB01CB
:101F60000C94B20FDC01FC01672F71917723E1F72C
:101F7000329704C07C916D9370836291AE17BF0756
:101F8000C8F30895E199FECF9FBB8EBBE09A9927D5
:101F90008DB30895A8E1B0E042E050E00C94D20F78
:101FA000DC01CB01FC01E199FECF06C0FFBBEEBB1B
:101FB000E09A31960DB20D9241505040B8F7089515
:041FC000F894FFCFC3
:101FC400303132333435363738390101380B28375C
:101FD4000B01202020202020202020202020202031
:101FE4002020494E3A20204F55543A2020202020CA
:101FF4002020000201000100000202000001000193
:10200400020001020400C00183FF4FC0F9A4B0998B
:102014009282F88098FFFC53693437333420526538
:10202400763A20206C617374203220646967697485
:1020340073206F662070617274206E6F2E202020D2
:10204400636869702072657620202020200A0D00C4
:10205400202020202020202020202020202D2D2D55
:102064002D2D2D2D2D2D2D2D2D2D2D2D2D2D2D2D9C
:102074002D2D2D2D2D2D2020202D2D2D2D2D2D2DB3
:102084002D20202020200A0D002020202020202088
:10209400202020202020202020202020202020203C
:1020A40020202000464D5F5253515F5354415455F4
:1020B400533A2000737461747573206279746520D7
:1020C40020203A00726573703120202020202020C7
:1020D40020203A00667265712020202020202020D4
:1020E40020203A00667265712068696768202020A4
:1020F40020203A0066726571206C6F7720202020C2
:1021040020203A0072737369202020202020202090
:0421140020203A004D
:00000001FF
